{
	"BookStore_Smart_Contract/BookStore.sol": {
		"Bookstore": {
			"abi": [
				{
					"inputs": [],
					"stateMutability": "nonpayable",
					"type": "constructor"
				},
				{
					"anonymous": false,
					"inputs": [
						{
							"indexed": false,
							"internalType": "uint256",
							"name": "bookId",
							"type": "uint256"
						},
						{
							"indexed": false,
							"internalType": "string",
							"name": "title",
							"type": "string"
						},
						{
							"indexed": false,
							"internalType": "uint256",
							"name": "price",
							"type": "uint256"
						},
						{
							"indexed": false,
							"internalType": "uint256",
							"name": "stock",
							"type": "uint256"
						}
					],
					"name": "BookAdded",
					"type": "event"
				},
				{
					"anonymous": false,
					"inputs": [
						{
							"indexed": false,
							"internalType": "uint256",
							"name": "bookId",
							"type": "uint256"
						},
						{
							"indexed": false,
							"internalType": "address",
							"name": "buyer",
							"type": "address"
						},
						{
							"indexed": false,
							"internalType": "uint256",
							"name": "amount",
							"type": "uint256"
						}
					],
					"name": "BookPurchased",
					"type": "event"
				},
				{
					"anonymous": false,
					"inputs": [
						{
							"indexed": false,
							"internalType": "uint256",
							"name": "bookId",
							"type": "uint256"
						},
						{
							"indexed": false,
							"internalType": "string",
							"name": "title",
							"type": "string"
						},
						{
							"indexed": false,
							"internalType": "uint256",
							"name": "price",
							"type": "uint256"
						},
						{
							"indexed": false,
							"internalType": "uint256",
							"name": "stock",
							"type": "uint256"
						}
					],
					"name": "BookUpdated",
					"type": "event"
				},
				{
					"inputs": [
						{
							"internalType": "string",
							"name": "_title",
							"type": "string"
						},
						{
							"internalType": "uint256",
							"name": "_price",
							"type": "uint256"
						},
						{
							"internalType": "uint256",
							"name": "_stock",
							"type": "uint256"
						}
					],
					"name": "addBook",
					"outputs": [],
					"stateMutability": "nonpayable",
					"type": "function"
				},
				{
					"inputs": [],
					"name": "bookCount",
					"outputs": [
						{
							"internalType": "uint256",
							"name": "",
							"type": "uint256"
						}
					],
					"stateMutability": "view",
					"type": "function"
				},
				{
					"inputs": [
						{
							"internalType": "uint256",
							"name": "",
							"type": "uint256"
						}
					],
					"name": "books",
					"outputs": [
						{
							"internalType": "string",
							"name": "title",
							"type": "string"
						},
						{
							"internalType": "uint256",
							"name": "price",
							"type": "uint256"
						},
						{
							"internalType": "uint256",
							"name": "stock",
							"type": "uint256"
						}
					],
					"stateMutability": "view",
					"type": "function"
				},
				{
					"inputs": [
						{
							"internalType": "uint256",
							"name": "_bookId",
							"type": "uint256"
						}
					],
					"name": "checkStock",
					"outputs": [
						{
							"internalType": "uint256",
							"name": "",
							"type": "uint256"
						}
					],
					"stateMutability": "view",
					"type": "function"
				},
				{
					"inputs": [],
					"name": "owner",
					"outputs": [
						{
							"internalType": "address",
							"name": "",
							"type": "address"
						}
					],
					"stateMutability": "view",
					"type": "function"
				},
				{
					"inputs": [
						{
							"internalType": "uint256",
							"name": "_bookId",
							"type": "uint256"
						},
						{
							"internalType": "uint256",
							"name": "_amount",
							"type": "uint256"
						}
					],
					"name": "purchaseBook",
					"outputs": [],
					"stateMutability": "payable",
					"type": "function"
				},
				{
					"inputs": [
						{
							"internalType": "uint256",
							"name": "_bookId",
							"type": "uint256"
						},
						{
							"internalType": "string",
							"name": "_title",
							"type": "string"
						},
						{
							"internalType": "uint256",
							"name": "_price",
							"type": "uint256"
						},
						{
							"internalType": "uint256",
							"name": "_stock",
							"type": "uint256"
						}
					],
					"name": "updateBook",
					"outputs": [],
					"stateMutability": "nonpayable",
					"type": "function"
				}
			],
			"devdoc": {
				"kind": "dev",
				"methods": {},
				"version": 1
			},
			"evm": {
				"assembly": "    /* \"BookStore_Smart_Contract/BookStore.sol\":60:2245  contract Bookstore {... */\n  mstore(0x40, 0x80)\n    /* \"BookStore_Smart_Contract/BookStore.sol\":246:247  0 */\n  0x00\n    /* \"BookStore_Smart_Contract/BookStore.sol\":222:247  uint public bookCount = 0 */\n  0x01\n  sstore\n    /* \"BookStore_Smart_Contract/BookStore.sol\":661:745  constructor() {... */\n  callvalue\n  dup1\n  iszero\n  tag_1\n  jumpi\n  0x00\n  dup1\n  revert\ntag_1:\n  pop\n    /* \"BookStore_Smart_Contract/BookStore.sol\":694:704  msg.sender */\n  caller\n    /* \"BookStore_Smart_Contract/BookStore.sol\":686:691  owner */\n  0x00\n  dup1\n    /* \"BookStore_Smart_Contract/BookStore.sol\":686:704  owner = msg.sender */\n  0x0100\n  exp\n  dup2\n  sload\n  dup2\n  0xffffffffffffffffffffffffffffffffffffffff\n  mul\n  not\n  and\n  swap1\n  dup4\n  0xffffffffffffffffffffffffffffffffffffffff\n  and\n  mul\n  or\n  swap1\n  sstore\n  pop\n    /* \"BookStore_Smart_Contract/BookStore.sol\":60:2245  contract Bookstore {... */\n  dataSize(sub_0)\n  dup1\n  dataOffset(sub_0)\n  0x00\n  codecopy\n  0x00\n  return\nstop\n\nsub_0: assembly {\n        /* \"BookStore_Smart_Contract/BookStore.sol\":60:2245  contract Bookstore {... */\n      mstore(0x40, 0x80)\n      jumpi(tag_1, lt(calldatasize, 0x04))\n      shr(0xe0, calldataload(0x00))\n      dup1\n      0x8da5cb5b\n      gt\n      tag_9\n      jumpi\n      dup1\n      0x8da5cb5b\n      eq\n      tag_5\n      jumpi\n      dup1\n      0xa307fcf9\n      eq\n      tag_6\n      jumpi\n      dup1\n      0xb905ad78\n      eq\n      tag_7\n      jumpi\n      dup1\n      0xf9263fc7\n      eq\n      tag_8\n      jumpi\n      jump(tag_1)\n    tag_9:\n      dup1\n      0x0eed433b\n      eq\n      tag_2\n      jumpi\n      dup1\n      0x68744046\n      eq\n      tag_3\n      jumpi\n      dup1\n      0x80d76e82\n      eq\n      tag_4\n      jumpi\n    tag_1:\n      0x00\n      dup1\n      revert\n        /* \"BookStore_Smart_Contract/BookStore.sol\":1542:2065  function purchaseBook(uint _bookId, uint _amount) public payable {... */\n    tag_2:\n      tag_10\n      0x04\n      dup1\n      calldatasize\n      sub\n      dup2\n      add\n      swap1\n      tag_11\n      swap2\n      swap1\n      tag_12\n      jump\t// in\n    tag_11:\n      tag_13\n      jump\t// in\n    tag_10:\n      stop\n        /* \"BookStore_Smart_Contract/BookStore.sol\":256:290  mapping(uint => Book) public books */\n    tag_3:\n      callvalue\n      dup1\n      iszero\n      tag_14\n      jumpi\n      0x00\n      dup1\n      revert\n    tag_14:\n      pop\n      tag_15\n      0x04\n      dup1\n      calldatasize\n      sub\n      dup2\n      add\n      swap1\n      tag_16\n      swap2\n      swap1\n      tag_17\n      jump\t// in\n    tag_16:\n      tag_18\n      jump\t// in\n    tag_15:\n      mload(0x40)\n      tag_19\n      swap4\n      swap3\n      swap2\n      swap1\n      tag_20\n      jump\t// in\n    tag_19:\n      mload(0x40)\n      dup1\n      swap2\n      sub\n      swap1\n      return\n        /* \"BookStore_Smart_Contract/BookStore.sol\":753:1115  function addBook(string memory _title, uint _price, uint _stock) public onlyOwner {... */\n    tag_4:\n      callvalue\n      dup1\n      iszero\n      tag_21\n      jumpi\n      0x00\n      dup1\n      revert\n    tag_21:\n      pop\n      tag_22\n      0x04\n      dup1\n      calldatasize\n      sub\n      dup2\n      add\n      swap1\n      tag_23\n      swap2\n      swap1\n      tag_24\n      jump\t// in\n    tag_23:\n      tag_25\n      jump\t// in\n    tag_22:\n      stop\n        /* \"BookStore_Smart_Contract/BookStore.sol\":195:215  address public owner */\n    tag_5:\n      callvalue\n      dup1\n      iszero\n      tag_26\n      jumpi\n      0x00\n      dup1\n      revert\n    tag_26:\n      pop\n      tag_27\n      tag_28\n      jump\t// in\n    tag_27:\n      mload(0x40)\n      tag_29\n      swap2\n      swap1\n      tag_30\n      jump\t// in\n    tag_29:\n      mload(0x40)\n      dup1\n      swap2\n      sub\n      swap1\n      return\n        /* \"BookStore_Smart_Contract/BookStore.sol\":2073:2242  function checkStock(uint _bookId) public view returns (uint) {... */\n    tag_6:\n      callvalue\n      dup1\n      iszero\n      tag_31\n      jumpi\n      0x00\n      dup1\n      revert\n    tag_31:\n      pop\n      tag_32\n      0x04\n      dup1\n      calldatasize\n      sub\n      dup2\n      add\n      swap1\n      tag_33\n      swap2\n      swap1\n      tag_17\n      jump\t// in\n    tag_33:\n      tag_34\n      jump\t// in\n    tag_32:\n      mload(0x40)\n      tag_35\n      swap2\n      swap1\n      tag_36\n      jump\t// in\n    tag_35:\n      mload(0x40)\n      dup1\n      swap2\n      sub\n      swap1\n      return\n        /* \"BookStore_Smart_Contract/BookStore.sol\":222:247  uint public bookCount = 0 */\n    tag_7:\n      callvalue\n      dup1\n      iszero\n      tag_37\n      jumpi\n      0x00\n      dup1\n      revert\n    tag_37:\n      pop\n      tag_38\n      tag_39\n      jump\t// in\n    tag_38:\n      mload(0x40)\n      tag_40\n      swap2\n      swap1\n      tag_36\n      jump\t// in\n    tag_40:\n      mload(0x40)\n      dup1\n      swap2\n      sub\n      swap1\n      return\n        /* \"BookStore_Smart_Contract/BookStore.sol\":1123:1534  function updateBook(uint _bookId, string memory _title, uint _price, uint _stock) public onlyOwner {... */\n    tag_8:\n      callvalue\n      dup1\n      iszero\n      tag_41\n      jumpi\n      0x00\n      dup1\n      revert\n    tag_41:\n      pop\n      tag_42\n      0x04\n      dup1\n      calldatasize\n      sub\n      dup2\n      add\n      swap1\n      tag_43\n      swap2\n      swap1\n      tag_44\n      jump\t// in\n    tag_43:\n      tag_45\n      jump\t// in\n    tag_42:\n      stop\n        /* \"BookStore_Smart_Contract/BookStore.sol\":1542:2065  function purchaseBook(uint _bookId, uint _amount) public payable {... */\n    tag_13:\n        /* \"BookStore_Smart_Contract/BookStore.sol\":1636:1645  bookCount */\n      sload(0x01)\n        /* \"BookStore_Smart_Contract/BookStore.sol\":1626:1633  _bookId */\n      dup3\n        /* \"BookStore_Smart_Contract/BookStore.sol\":1626:1645  _bookId < bookCount */\n      lt\n        /* \"BookStore_Smart_Contract/BookStore.sol\":1618:1669  require(_bookId < bookCount, \"Book does not exist\") */\n      tag_47\n      jumpi\n      mload(0x40)\n      0x08c379a000000000000000000000000000000000000000000000000000000000\n      dup2\n      mstore\n      0x04\n      add\n      tag_48\n      swap1\n      tag_49\n      jump\t// in\n    tag_48:\n      mload(0x40)\n      dup1\n      swap2\n      sub\n      swap1\n      revert\n    tag_47:\n        /* \"BookStore_Smart_Contract/BookStore.sol\":1680:1697  Book storage book */\n      0x00\n        /* \"BookStore_Smart_Contract/BookStore.sol\":1700:1705  books */\n      0x02\n        /* \"BookStore_Smart_Contract/BookStore.sol\":1700:1714  books[_bookId] */\n      0x00\n        /* \"BookStore_Smart_Contract/BookStore.sol\":1706:1713  _bookId */\n      dup5\n        /* \"BookStore_Smart_Contract/BookStore.sol\":1700:1714  books[_bookId] */\n      dup2\n      mstore\n      0x20\n      add\n      swap1\n      dup2\n      mstore\n      0x20\n      add\n      0x00\n      keccak256\n        /* \"BookStore_Smart_Contract/BookStore.sol\":1680:1714  Book storage book = books[_bookId] */\n      swap1\n      pop\n        /* \"BookStore_Smart_Contract/BookStore.sol\":1748:1749  0 */\n      0x00\n        /* \"BookStore_Smart_Contract/BookStore.sol\":1735:1739  book */\n      dup2\n        /* \"BookStore_Smart_Contract/BookStore.sol\":1735:1745  book.stock */\n      0x02\n      add\n      sload\n        /* \"BookStore_Smart_Contract/BookStore.sol\":1735:1749  book.stock > 0 */\n      gt\n        /* \"BookStore_Smart_Contract/BookStore.sol\":1727:1774  require(book.stock > 0, \"Book is out of stock\") */\n      tag_50\n      jumpi\n      mload(0x40)\n      0x08c379a000000000000000000000000000000000000000000000000000000000\n      dup2\n      mstore\n      0x04\n      add\n      tag_51\n      swap1\n      tag_52\n      jump\t// in\n    tag_51:\n      mload(0x40)\n      dup1\n      swap2\n      sub\n      swap1\n      revert\n    tag_50:\n        /* \"BookStore_Smart_Contract/BookStore.sol\":1806:1810  book */\n      dup1\n        /* \"BookStore_Smart_Contract/BookStore.sol\":1806:1816  book.price */\n      0x01\n      add\n      sload\n        /* \"BookStore_Smart_Contract/BookStore.sol\":1793:1802  msg.value */\n      callvalue\n        /* \"BookStore_Smart_Contract/BookStore.sol\":1793:1816  msg.value >= book.price */\n      lt\n      iszero\n        /* \"BookStore_Smart_Contract/BookStore.sol\":1785:1841  require(msg.value >= book.price, \"Insufficient payment\") */\n      tag_53\n      jumpi\n      mload(0x40)\n      0x08c379a000000000000000000000000000000000000000000000000000000000\n      dup2\n      mstore\n      0x04\n      add\n      tag_54\n      swap1\n      tag_55\n      jump\t// in\n    tag_54:\n      mload(0x40)\n      dup1\n      swap2\n      sub\n      swap1\n      revert\n    tag_53:\n        /* \"BookStore_Smart_Contract/BookStore.sol\":1884:1888  book */\n      dup1\n        /* \"BookStore_Smart_Contract/BookStore.sol\":1884:1894  book.stock */\n      0x02\n      add\n      sload\n        /* \"BookStore_Smart_Contract/BookStore.sol\":1871:1875  book */\n      dup2\n        /* \"BookStore_Smart_Contract/BookStore.sol\":1871:1881  book.price */\n      0x01\n      add\n      sload\n        /* \"BookStore_Smart_Contract/BookStore.sol\":1871:1894  book.price * book.stock */\n      tag_56\n      swap2\n      swap1\n      tag_57\n      jump\t// in\n    tag_56:\n        /* \"BookStore_Smart_Contract/BookStore.sol\":1860:1867  _amount */\n      dup3\n        /* \"BookStore_Smart_Contract/BookStore.sol\":1860:1894  _amount == book.price * book.stock */\n      eq\n        /* \"BookStore_Smart_Contract/BookStore.sol\":1852:1924  require(_amount == book.price * book.stock, \"Incorrect payment amount.\") */\n      tag_58\n      jumpi\n      mload(0x40)\n      0x08c379a000000000000000000000000000000000000000000000000000000000\n      dup2\n      mstore\n      0x04\n      add\n      tag_59\n      swap1\n      tag_60\n      jump\t// in\n    tag_59:\n      mload(0x40)\n      dup1\n      swap2\n      sub\n      swap1\n      revert\n    tag_58:\n        /* \"BookStore_Smart_Contract/BookStore.sol\":1937:1941  book */\n      dup1\n        /* \"BookStore_Smart_Contract/BookStore.sol\":1937:1947  book.stock */\n      0x02\n      add\n      0x00\n        /* \"BookStore_Smart_Contract/BookStore.sol\":1937:1949  book.stock-- */\n      dup2\n      sload\n      dup1\n      swap3\n      swap2\n      swap1\n      tag_61\n      swap1\n      tag_62\n      jump\t// in\n    tag_61:\n      swap2\n      swap1\n      pop\n      sstore\n      pop\n        /* \"BookStore_Smart_Contract/BookStore.sol\":1968:1973  owner */\n      0x00\n      dup1\n      sload\n      swap1\n      0x0100\n      exp\n      swap1\n      div\n      0xffffffffffffffffffffffffffffffffffffffff\n      and\n        /* \"BookStore_Smart_Contract/BookStore.sol\":1960:1983  payable(owner).transfer */\n      0xffffffffffffffffffffffffffffffffffffffff\n      and\n        /* \"BookStore_Smart_Contract/BookStore.sol\":1960:1994  payable(owner).transfer(msg.value) */\n      0x08fc\n        /* \"BookStore_Smart_Contract/BookStore.sol\":1984:1993  msg.value */\n      callvalue\n        /* \"BookStore_Smart_Contract/BookStore.sol\":1960:1994  payable(owner).transfer(msg.value) */\n      swap1\n      dup2\n      iszero\n      mul\n      swap1\n      mload(0x40)\n      0x00\n      mload(0x40)\n      dup1\n      dup4\n      sub\n      dup2\n      dup6\n      dup9\n      dup9\n      call\n      swap4\n      pop\n      pop\n      pop\n      pop\n      iszero\n      dup1\n      iszero\n      tag_64\n      jumpi\n      returndatasize\n      0x00\n      dup1\n      returndatacopy\n      revert(0x00, returndatasize)\n    tag_64:\n      pop\n        /* \"BookStore_Smart_Contract/BookStore.sol\":2012:2057  BookPurchased(_bookId, msg.sender, msg.value) */\n      0x439c08b00222293c6073f3ee383214541a4a21aca7dbb0a45963f86fa8e589f7\n        /* \"BookStore_Smart_Contract/BookStore.sol\":2026:2033  _bookId */\n      dup4\n        /* \"BookStore_Smart_Contract/BookStore.sol\":2035:2045  msg.sender */\n      caller\n        /* \"BookStore_Smart_Contract/BookStore.sol\":2047:2056  msg.value */\n      callvalue\n        /* \"BookStore_Smart_Contract/BookStore.sol\":2012:2057  BookPurchased(_bookId, msg.sender, msg.value) */\n      mload(0x40)\n      tag_65\n      swap4\n      swap3\n      swap2\n      swap1\n      tag_66\n      jump\t// in\n    tag_65:\n      mload(0x40)\n      dup1\n      swap2\n      sub\n      swap1\n      log1\n        /* \"BookStore_Smart_Contract/BookStore.sol\":1607:2065  {... */\n      pop\n        /* \"BookStore_Smart_Contract/BookStore.sol\":1542:2065  function purchaseBook(uint _bookId, uint _amount) public payable {... */\n      pop\n      pop\n      jump\t// out\n        /* \"BookStore_Smart_Contract/BookStore.sol\":256:290  mapping(uint => Book) public books */\n    tag_18:\n      mstore(0x20, 0x02)\n      dup1\n      0x00\n      mstore\n      keccak256(0x00, 0x40)\n      0x00\n      swap2\n      pop\n      swap1\n      pop\n      dup1\n      0x00\n      add\n      dup1\n      sload\n      tag_67\n      swap1\n      tag_68\n      jump\t// in\n    tag_67:\n      dup1\n      0x1f\n      add\n      0x20\n      dup1\n      swap2\n      div\n      mul\n      0x20\n      add\n      mload(0x40)\n      swap1\n      dup2\n      add\n      0x40\n      mstore\n      dup1\n      swap3\n      swap2\n      swap1\n      dup2\n      dup2\n      mstore\n      0x20\n      add\n      dup3\n      dup1\n      sload\n      tag_69\n      swap1\n      tag_68\n      jump\t// in\n    tag_69:\n      dup1\n      iszero\n      tag_70\n      jumpi\n      dup1\n      0x1f\n      lt\n      tag_71\n      jumpi\n      0x0100\n      dup1\n      dup4\n      sload\n      div\n      mul\n      dup4\n      mstore\n      swap2\n      0x20\n      add\n      swap2\n      jump(tag_70)\n    tag_71:\n      dup3\n      add\n      swap2\n      swap1\n      0x00\n      mstore\n      keccak256(0x00, 0x20)\n      swap1\n    tag_72:\n      dup2\n      sload\n      dup2\n      mstore\n      swap1\n      0x01\n      add\n      swap1\n      0x20\n      add\n      dup1\n      dup4\n      gt\n      tag_72\n      jumpi\n      dup3\n      swap1\n      sub\n      0x1f\n      and\n      dup3\n      add\n      swap2\n    tag_70:\n      pop\n      pop\n      pop\n      pop\n      pop\n      swap1\n      dup1\n      0x01\n      add\n      sload\n      swap1\n      dup1\n      0x02\n      add\n      sload\n      swap1\n      pop\n      dup4\n      jump\t// out\n        /* \"BookStore_Smart_Contract/BookStore.sol\":753:1115  function addBook(string memory _title, uint _price, uint _stock) public onlyOwner {... */\n    tag_25:\n        /* \"BookStore_Smart_Contract/BookStore.sol\":585:590  owner */\n      0x00\n      dup1\n      sload\n      swap1\n      0x0100\n      exp\n      swap1\n      div\n      0xffffffffffffffffffffffffffffffffffffffff\n      and\n        /* \"BookStore_Smart_Contract/BookStore.sol\":571:590  msg.sender == owner */\n      0xffffffffffffffffffffffffffffffffffffffff\n      and\n        /* \"BookStore_Smart_Contract/BookStore.sol\":571:581  msg.sender */\n      caller\n        /* \"BookStore_Smart_Contract/BookStore.sol\":571:590  msg.sender == owner */\n      0xffffffffffffffffffffffffffffffffffffffff\n      and\n      eq\n        /* \"BookStore_Smart_Contract/BookStore.sol\":563:633  require(msg.sender == owner, \"Only the owner can perform this action\") */\n      tag_74\n      jumpi\n      mload(0x40)\n      0x08c379a000000000000000000000000000000000000000000000000000000000\n      dup2\n      mstore\n      0x04\n      add\n      tag_75\n      swap1\n      tag_76\n      jump\t// in\n    tag_75:\n      mload(0x40)\n      dup1\n      swap2\n      sub\n      swap1\n      revert\n    tag_74:\n        /* \"BookStore_Smart_Contract/BookStore.sol\":863:864  0 */\n      0x00\n        /* \"BookStore_Smart_Contract/BookStore.sol\":854:860  _price */\n      dup3\n        /* \"BookStore_Smart_Contract/BookStore.sol\":854:864  _price > 0 */\n      gt\n        /* \"BookStore_Smart_Contract/BookStore.sol\":846:900  require(_price > 0, \"Price must be greater than zero\") */\n      tag_78\n      jumpi\n      mload(0x40)\n      0x08c379a000000000000000000000000000000000000000000000000000000000\n      dup2\n      mstore\n      0x04\n      add\n      tag_79\n      swap1\n      tag_80\n      jump\t// in\n    tag_79:\n      mload(0x40)\n      dup1\n      swap2\n      sub\n      swap1\n      revert\n    tag_78:\n        /* \"BookStore_Smart_Contract/BookStore.sol\":928:929  0 */\n      0x00\n        /* \"BookStore_Smart_Contract/BookStore.sol\":919:925  _stock */\n      dup2\n        /* \"BookStore_Smart_Contract/BookStore.sol\":919:929  _stock > 0 */\n      gt\n        /* \"BookStore_Smart_Contract/BookStore.sol\":911:965  require(_stock > 0, \"Stock must be greater than zero\") */\n      tag_81\n      jumpi\n      mload(0x40)\n      0x08c379a000000000000000000000000000000000000000000000000000000000\n      dup2\n      mstore\n      0x04\n      add\n      tag_82\n      swap1\n      tag_83\n      jump\t// in\n    tag_82:\n      mload(0x40)\n      dup1\n      swap2\n      sub\n      swap1\n      revert\n    tag_81:\n        /* \"BookStore_Smart_Contract/BookStore.sol\":997:1025  Book(_title, _price, _stock) */\n      mload(0x40)\n      dup1\n      0x60\n      add\n      0x40\n      mstore\n      dup1\n        /* \"BookStore_Smart_Contract/BookStore.sol\":1002:1008  _title */\n      dup5\n        /* \"BookStore_Smart_Contract/BookStore.sol\":997:1025  Book(_title, _price, _stock) */\n      dup2\n      mstore\n      0x20\n      add\n        /* \"BookStore_Smart_Contract/BookStore.sol\":1010:1016  _price */\n      dup4\n        /* \"BookStore_Smart_Contract/BookStore.sol\":997:1025  Book(_title, _price, _stock) */\n      dup2\n      mstore\n      0x20\n      add\n        /* \"BookStore_Smart_Contract/BookStore.sol\":1018:1024  _stock */\n      dup3\n        /* \"BookStore_Smart_Contract/BookStore.sol\":997:1025  Book(_title, _price, _stock) */\n      dup2\n      mstore\n      pop\n        /* \"BookStore_Smart_Contract/BookStore.sol\":978:983  books */\n      0x02\n        /* \"BookStore_Smart_Contract/BookStore.sol\":978:994  books[bookCount] */\n      0x00\n        /* \"BookStore_Smart_Contract/BookStore.sol\":984:993  bookCount */\n      sload(0x01)\n        /* \"BookStore_Smart_Contract/BookStore.sol\":978:994  books[bookCount] */\n      dup2\n      mstore\n      0x20\n      add\n      swap1\n      dup2\n      mstore\n      0x20\n      add\n      0x00\n      keccak256\n        /* \"BookStore_Smart_Contract/BookStore.sol\":978:1025  books[bookCount] = Book(_title, _price, _stock) */\n      0x00\n      dup3\n      add\n      mload\n      dup2\n      0x00\n      add\n      swap1\n      dup2\n      tag_84\n      swap2\n      swap1\n      tag_85\n      jump\t// in\n    tag_84:\n      pop\n      0x20\n      dup3\n      add\n      mload\n      dup2\n      0x01\n      add\n      sstore\n      0x40\n      dup3\n      add\n      mload\n      dup2\n      0x02\n      add\n      sstore\n      swap1\n      pop\n      pop\n        /* \"BookStore_Smart_Contract/BookStore.sol\":1041:1085  BookAdded(bookCount, _title, _price, _stock) */\n      0xf58a0390aa55f63e4f15809a0f7a46eeec963676bb985c76cfd09f3a08e2287b\n        /* \"BookStore_Smart_Contract/BookStore.sol\":1051:1060  bookCount */\n      sload(0x01)\n        /* \"BookStore_Smart_Contract/BookStore.sol\":1062:1068  _title */\n      dup5\n        /* \"BookStore_Smart_Contract/BookStore.sol\":1070:1076  _price */\n      dup5\n        /* \"BookStore_Smart_Contract/BookStore.sol\":1078:1084  _stock */\n      dup5\n        /* \"BookStore_Smart_Contract/BookStore.sol\":1041:1085  BookAdded(bookCount, _title, _price, _stock) */\n      mload(0x40)\n      tag_86\n      swap5\n      swap4\n      swap3\n      swap2\n      swap1\n      tag_87\n      jump\t// in\n    tag_86:\n      mload(0x40)\n      dup1\n      swap2\n      sub\n      swap1\n      log1\n        /* \"BookStore_Smart_Contract/BookStore.sol\":1096:1105  bookCount */\n      0x01\n      0x00\n        /* \"BookStore_Smart_Contract/BookStore.sol\":1096:1107  bookCount++ */\n      dup2\n      sload\n      dup1\n      swap3\n      swap2\n      swap1\n      tag_88\n      swap1\n      tag_89\n      jump\t// in\n    tag_88:\n      swap2\n      swap1\n      pop\n      sstore\n      pop\n        /* \"BookStore_Smart_Contract/BookStore.sol\":753:1115  function addBook(string memory _title, uint _price, uint _stock) public onlyOwner {... */\n      pop\n      pop\n      pop\n      jump\t// out\n        /* \"BookStore_Smart_Contract/BookStore.sol\":195:215  address public owner */\n    tag_28:\n      0x00\n      dup1\n      sload\n      swap1\n      0x0100\n      exp\n      swap1\n      div\n      0xffffffffffffffffffffffffffffffffffffffff\n      and\n      dup2\n      jump\t// out\n        /* \"BookStore_Smart_Contract/BookStore.sol\":2073:2242  function checkStock(uint _bookId) public view returns (uint) {... */\n    tag_34:\n        /* \"BookStore_Smart_Contract/BookStore.sol\":2128:2132  uint */\n      0x00\n        /* \"BookStore_Smart_Contract/BookStore.sol\":2163:2172  bookCount */\n      sload(0x01)\n        /* \"BookStore_Smart_Contract/BookStore.sol\":2153:2160  _bookId */\n      dup3\n        /* \"BookStore_Smart_Contract/BookStore.sol\":2153:2172  _bookId < bookCount */\n      lt\n        /* \"BookStore_Smart_Contract/BookStore.sol\":2145:2196  require(_bookId < bookCount, \"Book does not exist\") */\n      tag_91\n      jumpi\n      mload(0x40)\n      0x08c379a000000000000000000000000000000000000000000000000000000000\n      dup2\n      mstore\n      0x04\n      add\n      tag_92\n      swap1\n      tag_49\n      jump\t// in\n    tag_92:\n      mload(0x40)\n      dup1\n      swap2\n      sub\n      swap1\n      revert\n    tag_91:\n        /* \"BookStore_Smart_Contract/BookStore.sol\":2214:2219  books */\n      0x02\n        /* \"BookStore_Smart_Contract/BookStore.sol\":2214:2228  books[_bookId] */\n      0x00\n        /* \"BookStore_Smart_Contract/BookStore.sol\":2220:2227  _bookId */\n      dup4\n        /* \"BookStore_Smart_Contract/BookStore.sol\":2214:2228  books[_bookId] */\n      dup2\n      mstore\n      0x20\n      add\n      swap1\n      dup2\n      mstore\n      0x20\n      add\n      0x00\n      keccak256\n        /* \"BookStore_Smart_Contract/BookStore.sol\":2214:2234  books[_bookId].stock */\n      0x02\n      add\n      sload\n        /* \"BookStore_Smart_Contract/BookStore.sol\":2207:2234  return books[_bookId].stock */\n      swap1\n      pop\n        /* \"BookStore_Smart_Contract/BookStore.sol\":2073:2242  function checkStock(uint _bookId) public view returns (uint) {... */\n      swap2\n      swap1\n      pop\n      jump\t// out\n        /* \"BookStore_Smart_Contract/BookStore.sol\":222:247  uint public bookCount = 0 */\n    tag_39:\n      sload(0x01)\n      dup2\n      jump\t// out\n        /* \"BookStore_Smart_Contract/BookStore.sol\":1123:1534  function updateBook(uint _bookId, string memory _title, uint _price, uint _stock) public onlyOwner {... */\n    tag_45:\n        /* \"BookStore_Smart_Contract/BookStore.sol\":585:590  owner */\n      0x00\n      dup1\n      sload\n      swap1\n      0x0100\n      exp\n      swap1\n      div\n      0xffffffffffffffffffffffffffffffffffffffff\n      and\n        /* \"BookStore_Smart_Contract/BookStore.sol\":571:590  msg.sender == owner */\n      0xffffffffffffffffffffffffffffffffffffffff\n      and\n        /* \"BookStore_Smart_Contract/BookStore.sol\":571:581  msg.sender */\n      caller\n        /* \"BookStore_Smart_Contract/BookStore.sol\":571:590  msg.sender == owner */\n      0xffffffffffffffffffffffffffffffffffffffff\n      and\n      eq\n        /* \"BookStore_Smart_Contract/BookStore.sol\":563:633  require(msg.sender == owner, \"Only the owner can perform this action\") */\n      tag_94\n      jumpi\n      mload(0x40)\n      0x08c379a000000000000000000000000000000000000000000000000000000000\n      dup2\n      mstore\n      0x04\n      add\n      tag_95\n      swap1\n      tag_76\n      jump\t// in\n    tag_95:\n      mload(0x40)\n      dup1\n      swap2\n      sub\n      swap1\n      revert\n    tag_94:\n        /* \"BookStore_Smart_Contract/BookStore.sol\":1251:1260  bookCount */\n      sload(0x01)\n        /* \"BookStore_Smart_Contract/BookStore.sol\":1241:1248  _bookId */\n      dup5\n        /* \"BookStore_Smart_Contract/BookStore.sol\":1241:1260  _bookId < bookCount */\n      lt\n        /* \"BookStore_Smart_Contract/BookStore.sol\":1233:1284  require(_bookId < bookCount, \"Book does not exist\") */\n      tag_97\n      jumpi\n      mload(0x40)\n      0x08c379a000000000000000000000000000000000000000000000000000000000\n      dup2\n      mstore\n      0x04\n      add\n      tag_98\n      swap1\n      tag_49\n      jump\t// in\n    tag_98:\n      mload(0x40)\n      dup1\n      swap2\n      sub\n      swap1\n      revert\n    tag_97:\n        /* \"BookStore_Smart_Contract/BookStore.sol\":1312:1313  0 */\n      0x00\n        /* \"BookStore_Smart_Contract/BookStore.sol\":1303:1309  _price */\n      dup3\n        /* \"BookStore_Smart_Contract/BookStore.sol\":1303:1313  _price > 0 */\n      gt\n        /* \"BookStore_Smart_Contract/BookStore.sol\":1295:1349  require(_price > 0, \"Price must be greater than zero\") */\n      tag_99\n      jumpi\n      mload(0x40)\n      0x08c379a000000000000000000000000000000000000000000000000000000000\n      dup2\n      mstore\n      0x04\n      add\n      tag_100\n      swap1\n      tag_80\n      jump\t// in\n    tag_100:\n      mload(0x40)\n      dup1\n      swap2\n      sub\n      swap1\n      revert\n    tag_99:\n        /* \"BookStore_Smart_Contract/BookStore.sol\":1378:1379  0 */\n      0x00\n        /* \"BookStore_Smart_Contract/BookStore.sol\":1368:1374  _stock */\n      dup2\n        /* \"BookStore_Smart_Contract/BookStore.sol\":1368:1379  _stock >= 0 */\n      lt\n      iszero\n        /* \"BookStore_Smart_Contract/BookStore.sol\":1360:1408  require(_stock >= 0, \"Stock cannot be negative\") */\n      tag_101\n      jumpi\n      mload(0x40)\n      0x08c379a000000000000000000000000000000000000000000000000000000000\n      dup2\n      mstore\n      0x04\n      add\n      tag_102\n      swap1\n      tag_103\n      jump\t// in\n    tag_102:\n      mload(0x40)\n      dup1\n      swap2\n      sub\n      swap1\n      revert\n    tag_101:\n        /* \"BookStore_Smart_Contract/BookStore.sol\":1438:1466  Book(_title, _price, _stock) */\n      mload(0x40)\n      dup1\n      0x60\n      add\n      0x40\n      mstore\n      dup1\n        /* \"BookStore_Smart_Contract/BookStore.sol\":1443:1449  _title */\n      dup5\n        /* \"BookStore_Smart_Contract/BookStore.sol\":1438:1466  Book(_title, _price, _stock) */\n      dup2\n      mstore\n      0x20\n      add\n        /* \"BookStore_Smart_Contract/BookStore.sol\":1451:1457  _price */\n      dup4\n        /* \"BookStore_Smart_Contract/BookStore.sol\":1438:1466  Book(_title, _price, _stock) */\n      dup2\n      mstore\n      0x20\n      add\n        /* \"BookStore_Smart_Contract/BookStore.sol\":1459:1465  _stock */\n      dup3\n        /* \"BookStore_Smart_Contract/BookStore.sol\":1438:1466  Book(_title, _price, _stock) */\n      dup2\n      mstore\n      pop\n        /* \"BookStore_Smart_Contract/BookStore.sol\":1421:1426  books */\n      0x02\n        /* \"BookStore_Smart_Contract/BookStore.sol\":1421:1435  books[_bookId] */\n      0x00\n        /* \"BookStore_Smart_Contract/BookStore.sol\":1427:1434  _bookId */\n      dup7\n        /* \"BookStore_Smart_Contract/BookStore.sol\":1421:1435  books[_bookId] */\n      dup2\n      mstore\n      0x20\n      add\n      swap1\n      dup2\n      mstore\n      0x20\n      add\n      0x00\n      keccak256\n        /* \"BookStore_Smart_Contract/BookStore.sol\":1421:1466  books[_bookId] = Book(_title, _price, _stock) */\n      0x00\n      dup3\n      add\n      mload\n      dup2\n      0x00\n      add\n      swap1\n      dup2\n      tag_104\n      swap2\n      swap1\n      tag_85\n      jump\t// in\n    tag_104:\n      pop\n      0x20\n      dup3\n      add\n      mload\n      dup2\n      0x01\n      add\n      sstore\n      0x40\n      dup3\n      add\n      mload\n      dup2\n      0x02\n      add\n      sstore\n      swap1\n      pop\n      pop\n        /* \"BookStore_Smart_Contract/BookStore.sol\":1482:1526  BookUpdated(_bookId, _title, _price, _stock) */\n      0x8e4cd869724720efe6ceac845a12b8677c7de3ab39cb15c41d9d782f72694db6\n        /* \"BookStore_Smart_Contract/BookStore.sol\":1494:1501  _bookId */\n      dup5\n        /* \"BookStore_Smart_Contract/BookStore.sol\":1503:1509  _title */\n      dup5\n        /* \"BookStore_Smart_Contract/BookStore.sol\":1511:1517  _price */\n      dup5\n        /* \"BookStore_Smart_Contract/BookStore.sol\":1519:1525  _stock */\n      dup5\n        /* \"BookStore_Smart_Contract/BookStore.sol\":1482:1526  BookUpdated(_bookId, _title, _price, _stock) */\n      mload(0x40)\n      tag_105\n      swap5\n      swap4\n      swap3\n      swap2\n      swap1\n      tag_87\n      jump\t// in\n    tag_105:\n      mload(0x40)\n      dup1\n      swap2\n      sub\n      swap1\n      log1\n        /* \"BookStore_Smart_Contract/BookStore.sol\":1123:1534  function updateBook(uint _bookId, string memory _title, uint _price, uint _stock) public onlyOwner {... */\n      pop\n      pop\n      pop\n      pop\n      jump\t// out\n        /* \"#utility.yul\":7:82   */\n    tag_106:\n        /* \"#utility.yul\":40:46   */\n      0x00\n        /* \"#utility.yul\":73:75   */\n      0x40\n        /* \"#utility.yul\":67:76   */\n      mload\n        /* \"#utility.yul\":57:76   */\n      swap1\n      pop\n        /* \"#utility.yul\":7:82   */\n      swap1\n      jump\t// out\n        /* \"#utility.yul\":88:205   */\n    tag_107:\n        /* \"#utility.yul\":197:198   */\n      0x00\n        /* \"#utility.yul\":194:195   */\n      dup1\n        /* \"#utility.yul\":187:199   */\n      revert\n        /* \"#utility.yul\":211:328   */\n    tag_108:\n        /* \"#utility.yul\":320:321   */\n      0x00\n        /* \"#utility.yul\":317:318   */\n      dup1\n        /* \"#utility.yul\":310:322   */\n      revert\n        /* \"#utility.yul\":334:411   */\n    tag_109:\n        /* \"#utility.yul\":371:378   */\n      0x00\n        /* \"#utility.yul\":400:405   */\n      dup2\n        /* \"#utility.yul\":389:405   */\n      swap1\n      pop\n        /* \"#utility.yul\":334:411   */\n      swap2\n      swap1\n      pop\n      jump\t// out\n        /* \"#utility.yul\":417:539   */\n    tag_110:\n        /* \"#utility.yul\":490:514   */\n      tag_169\n        /* \"#utility.yul\":508:513   */\n      dup2\n        /* \"#utility.yul\":490:514   */\n      tag_109\n      jump\t// in\n    tag_169:\n        /* \"#utility.yul\":483:488   */\n      dup2\n        /* \"#utility.yul\":480:515   */\n      eq\n        /* \"#utility.yul\":470:533   */\n      tag_170\n      jumpi\n        /* \"#utility.yul\":529:530   */\n      0x00\n        /* \"#utility.yul\":526:527   */\n      dup1\n        /* \"#utility.yul\":519:531   */\n      revert\n        /* \"#utility.yul\":470:533   */\n    tag_170:\n        /* \"#utility.yul\":417:539   */\n      pop\n      jump\t// out\n        /* \"#utility.yul\":545:684   */\n    tag_111:\n        /* \"#utility.yul\":591:596   */\n      0x00\n        /* \"#utility.yul\":629:635   */\n      dup2\n        /* \"#utility.yul\":616:636   */\n      calldataload\n        /* \"#utility.yul\":607:636   */\n      swap1\n      pop\n        /* \"#utility.yul\":645:678   */\n      tag_172\n        /* \"#utility.yul\":672:677   */\n      dup2\n        /* \"#utility.yul\":645:678   */\n      tag_110\n      jump\t// in\n    tag_172:\n        /* \"#utility.yul\":545:684   */\n      swap3\n      swap2\n      pop\n      pop\n      jump\t// out\n        /* \"#utility.yul\":690:1164   */\n    tag_12:\n        /* \"#utility.yul\":758:764   */\n      0x00\n        /* \"#utility.yul\":766:772   */\n      dup1\n        /* \"#utility.yul\":815:817   */\n      0x40\n        /* \"#utility.yul\":803:812   */\n      dup4\n        /* \"#utility.yul\":794:801   */\n      dup6\n        /* \"#utility.yul\":790:813   */\n      sub\n        /* \"#utility.yul\":786:818   */\n      slt\n        /* \"#utility.yul\":783:902   */\n      iszero\n      tag_174\n      jumpi\n        /* \"#utility.yul\":821:900   */\n      tag_175\n      tag_107\n      jump\t// in\n    tag_175:\n        /* \"#utility.yul\":783:902   */\n    tag_174:\n        /* \"#utility.yul\":941:942   */\n      0x00\n        /* \"#utility.yul\":966:1019   */\n      tag_176\n        /* \"#utility.yul\":1011:1018   */\n      dup6\n        /* \"#utility.yul\":1002:1008   */\n      dup3\n        /* \"#utility.yul\":991:1000   */\n      dup7\n        /* \"#utility.yul\":987:1009   */\n      add\n        /* \"#utility.yul\":966:1019   */\n      tag_111\n      jump\t// in\n    tag_176:\n        /* \"#utility.yul\":956:1019   */\n      swap3\n      pop\n        /* \"#utility.yul\":912:1029   */\n      pop\n        /* \"#utility.yul\":1068:1070   */\n      0x20\n        /* \"#utility.yul\":1094:1147   */\n      tag_177\n        /* \"#utility.yul\":1139:1146   */\n      dup6\n        /* \"#utility.yul\":1130:1136   */\n      dup3\n        /* \"#utility.yul\":1119:1128   */\n      dup7\n        /* \"#utility.yul\":1115:1137   */\n      add\n        /* \"#utility.yul\":1094:1147   */\n      tag_111\n      jump\t// in\n    tag_177:\n        /* \"#utility.yul\":1084:1147   */\n      swap2\n      pop\n        /* \"#utility.yul\":1039:1157   */\n      pop\n        /* \"#utility.yul\":690:1164   */\n      swap3\n      pop\n      swap3\n      swap1\n      pop\n      jump\t// out\n        /* \"#utility.yul\":1170:1499   */\n    tag_17:\n        /* \"#utility.yul\":1229:1235   */\n      0x00\n        /* \"#utility.yul\":1278:1280   */\n      0x20\n        /* \"#utility.yul\":1266:1275   */\n      dup3\n        /* \"#utility.yul\":1257:1264   */\n      dup5\n        /* \"#utility.yul\":1253:1276   */\n      sub\n        /* \"#utility.yul\":1249:1281   */\n      slt\n        /* \"#utility.yul\":1246:1365   */\n      iszero\n      tag_179\n      jumpi\n        /* \"#utility.yul\":1284:1363   */\n      tag_180\n      tag_107\n      jump\t// in\n    tag_180:\n        /* \"#utility.yul\":1246:1365   */\n    tag_179:\n        /* \"#utility.yul\":1404:1405   */\n      0x00\n        /* \"#utility.yul\":1429:1482   */\n      tag_181\n        /* \"#utility.yul\":1474:1481   */\n      dup5\n        /* \"#utility.yul\":1465:1471   */\n      dup3\n        /* \"#utility.yul\":1454:1463   */\n      dup6\n        /* \"#utility.yul\":1450:1472   */\n      add\n        /* \"#utility.yul\":1429:1482   */\n      tag_111\n      jump\t// in\n    tag_181:\n        /* \"#utility.yul\":1419:1482   */\n      swap2\n      pop\n        /* \"#utility.yul\":1375:1492   */\n      pop\n        /* \"#utility.yul\":1170:1499   */\n      swap3\n      swap2\n      pop\n      pop\n      jump\t// out\n        /* \"#utility.yul\":1505:1604   */\n    tag_112:\n        /* \"#utility.yul\":1557:1563   */\n      0x00\n        /* \"#utility.yul\":1591:1596   */\n      dup2\n        /* \"#utility.yul\":1585:1597   */\n      mload\n        /* \"#utility.yul\":1575:1597   */\n      swap1\n      pop\n        /* \"#utility.yul\":1505:1604   */\n      swap2\n      swap1\n      pop\n      jump\t// out\n        /* \"#utility.yul\":1610:1779   */\n    tag_113:\n        /* \"#utility.yul\":1694:1705   */\n      0x00\n        /* \"#utility.yul\":1728:1734   */\n      dup3\n        /* \"#utility.yul\":1723:1726   */\n      dup3\n        /* \"#utility.yul\":1716:1735   */\n      mstore\n        /* \"#utility.yul\":1768:1772   */\n      0x20\n        /* \"#utility.yul\":1763:1766   */\n      dup3\n        /* \"#utility.yul\":1759:1773   */\n      add\n        /* \"#utility.yul\":1744:1773   */\n      swap1\n      pop\n        /* \"#utility.yul\":1610:1779   */\n      swap3\n      swap2\n      pop\n      pop\n      jump\t// out\n        /* \"#utility.yul\":1785:1924   */\n    tag_114:\n        /* \"#utility.yul\":1874:1880   */\n      dup3\n        /* \"#utility.yul\":1869:1872   */\n      dup2\n        /* \"#utility.yul\":1864:1867   */\n      dup4\n        /* \"#utility.yul\":1858:1881   */\n      mcopy\n        /* \"#utility.yul\":1915:1916   */\n      0x00\n        /* \"#utility.yul\":1906:1912   */\n      dup4\n        /* \"#utility.yul\":1901:1904   */\n      dup4\n        /* \"#utility.yul\":1897:1913   */\n      add\n        /* \"#utility.yul\":1890:1917   */\n      mstore\n        /* \"#utility.yul\":1785:1924   */\n      pop\n      pop\n      pop\n      jump\t// out\n        /* \"#utility.yul\":1930:2032   */\n    tag_115:\n        /* \"#utility.yul\":1971:1977   */\n      0x00\n        /* \"#utility.yul\":2022:2024   */\n      0x1f\n        /* \"#utility.yul\":2018:2025   */\n      not\n        /* \"#utility.yul\":2013:2015   */\n      0x1f\n        /* \"#utility.yul\":2006:2011   */\n      dup4\n        /* \"#utility.yul\":2002:2016   */\n      add\n        /* \"#utility.yul\":1998:2026   */\n      and\n        /* \"#utility.yul\":1988:2026   */\n      swap1\n      pop\n        /* \"#utility.yul\":1930:2032   */\n      swap2\n      swap1\n      pop\n      jump\t// out\n        /* \"#utility.yul\":2038:2415   */\n    tag_116:\n        /* \"#utility.yul\":2126:2129   */\n      0x00\n        /* \"#utility.yul\":2154:2193   */\n      tag_187\n        /* \"#utility.yul\":2187:2192   */\n      dup3\n        /* \"#utility.yul\":2154:2193   */\n      tag_112\n      jump\t// in\n    tag_187:\n        /* \"#utility.yul\":2209:2280   */\n      tag_188\n        /* \"#utility.yul\":2273:2279   */\n      dup2\n        /* \"#utility.yul\":2268:2271   */\n      dup6\n        /* \"#utility.yul\":2209:2280   */\n      tag_113\n      jump\t// in\n    tag_188:\n        /* \"#utility.yul\":2202:2280   */\n      swap4\n      pop\n        /* \"#utility.yul\":2289:2354   */\n      tag_189\n        /* \"#utility.yul\":2347:2353   */\n      dup2\n        /* \"#utility.yul\":2342:2345   */\n      dup6\n        /* \"#utility.yul\":2335:2339   */\n      0x20\n        /* \"#utility.yul\":2328:2333   */\n      dup7\n        /* \"#utility.yul\":2324:2340   */\n      add\n        /* \"#utility.yul\":2289:2354   */\n      tag_114\n      jump\t// in\n    tag_189:\n        /* \"#utility.yul\":2379:2408   */\n      tag_190\n        /* \"#utility.yul\":2401:2407   */\n      dup2\n        /* \"#utility.yul\":2379:2408   */\n      tag_115\n      jump\t// in\n    tag_190:\n        /* \"#utility.yul\":2374:2377   */\n      dup5\n        /* \"#utility.yul\":2370:2409   */\n      add\n        /* \"#utility.yul\":2363:2409   */\n      swap2\n      pop\n        /* \"#utility.yul\":2130:2415   */\n      pop\n        /* \"#utility.yul\":2038:2415   */\n      swap3\n      swap2\n      pop\n      pop\n      jump\t// out\n        /* \"#utility.yul\":2421:2539   */\n    tag_117:\n        /* \"#utility.yul\":2508:2532   */\n      tag_192\n        /* \"#utility.yul\":2526:2531   */\n      dup2\n        /* \"#utility.yul\":2508:2532   */\n      tag_109\n      jump\t// in\n    tag_192:\n        /* \"#utility.yul\":2503:2506   */\n      dup3\n        /* \"#utility.yul\":2496:2533   */\n      mstore\n        /* \"#utility.yul\":2421:2539   */\n      pop\n      pop\n      jump\t// out\n        /* \"#utility.yul\":2545:3078   */\n    tag_20:\n        /* \"#utility.yul\":2714:2718   */\n      0x00\n        /* \"#utility.yul\":2752:2754   */\n      0x60\n        /* \"#utility.yul\":2741:2750   */\n      dup3\n        /* \"#utility.yul\":2737:2755   */\n      add\n        /* \"#utility.yul\":2729:2755   */\n      swap1\n      pop\n        /* \"#utility.yul\":2801:2810   */\n      dup2\n        /* \"#utility.yul\":2795:2799   */\n      dup2\n        /* \"#utility.yul\":2791:2811   */\n      sub\n        /* \"#utility.yul\":2787:2788   */\n      0x00\n        /* \"#utility.yul\":2776:2785   */\n      dup4\n        /* \"#utility.yul\":2772:2789   */\n      add\n        /* \"#utility.yul\":2765:2812   */\n      mstore\n        /* \"#utility.yul\":2829:2907   */\n      tag_194\n        /* \"#utility.yul\":2902:2906   */\n      dup2\n        /* \"#utility.yul\":2893:2899   */\n      dup7\n        /* \"#utility.yul\":2829:2907   */\n      tag_116\n      jump\t// in\n    tag_194:\n        /* \"#utility.yul\":2821:2907   */\n      swap1\n      pop\n        /* \"#utility.yul\":2917:2989   */\n      tag_195\n        /* \"#utility.yul\":2985:2987   */\n      0x20\n        /* \"#utility.yul\":2974:2983   */\n      dup4\n        /* \"#utility.yul\":2970:2988   */\n      add\n        /* \"#utility.yul\":2961:2967   */\n      dup6\n        /* \"#utility.yul\":2917:2989   */\n      tag_117\n      jump\t// in\n    tag_195:\n        /* \"#utility.yul\":2999:3071   */\n      tag_196\n        /* \"#utility.yul\":3067:3069   */\n      0x40\n        /* \"#utility.yul\":3056:3065   */\n      dup4\n        /* \"#utility.yul\":3052:3070   */\n      add\n        /* \"#utility.yul\":3043:3049   */\n      dup5\n        /* \"#utility.yul\":2999:3071   */\n      tag_117\n      jump\t// in\n    tag_196:\n        /* \"#utility.yul\":2545:3078   */\n      swap5\n      swap4\n      pop\n      pop\n      pop\n      pop\n      jump\t// out\n        /* \"#utility.yul\":3084:3201   */\n    tag_118:\n        /* \"#utility.yul\":3193:3194   */\n      0x00\n        /* \"#utility.yul\":3190:3191   */\n      dup1\n        /* \"#utility.yul\":3183:3195   */\n      revert\n        /* \"#utility.yul\":3207:3324   */\n    tag_119:\n        /* \"#utility.yul\":3316:3317   */\n      0x00\n        /* \"#utility.yul\":3313:3314   */\n      dup1\n        /* \"#utility.yul\":3306:3318   */\n      revert\n        /* \"#utility.yul\":3330:3510   */\n    tag_120:\n        /* \"#utility.yul\":3378:3455   */\n      0x4e487b7100000000000000000000000000000000000000000000000000000000\n        /* \"#utility.yul\":3375:3376   */\n      0x00\n        /* \"#utility.yul\":3368:3456   */\n      mstore\n        /* \"#utility.yul\":3475:3479   */\n      0x41\n        /* \"#utility.yul\":3472:3473   */\n      0x04\n        /* \"#utility.yul\":3465:3480   */\n      mstore\n        /* \"#utility.yul\":3499:3503   */\n      0x24\n        /* \"#utility.yul\":3496:3497   */\n      0x00\n        /* \"#utility.yul\":3489:3504   */\n      revert\n        /* \"#utility.yul\":3516:3797   */\n    tag_121:\n        /* \"#utility.yul\":3599:3626   */\n      tag_201\n        /* \"#utility.yul\":3621:3625   */\n      dup3\n        /* \"#utility.yul\":3599:3626   */\n      tag_115\n      jump\t// in\n    tag_201:\n        /* \"#utility.yul\":3591:3597   */\n      dup2\n        /* \"#utility.yul\":3587:3627   */\n      add\n        /* \"#utility.yul\":3729:3735   */\n      dup2\n        /* \"#utility.yul\":3717:3727   */\n      dup2\n        /* \"#utility.yul\":3714:3736   */\n      lt\n        /* \"#utility.yul\":3693:3711   */\n      0xffffffffffffffff\n        /* \"#utility.yul\":3681:3691   */\n      dup3\n        /* \"#utility.yul\":3678:3712   */\n      gt\n        /* \"#utility.yul\":3675:3737   */\n      or\n        /* \"#utility.yul\":3672:3760   */\n      iszero\n      tag_202\n      jumpi\n        /* \"#utility.yul\":3740:3758   */\n      tag_203\n      tag_120\n      jump\t// in\n    tag_203:\n        /* \"#utility.yul\":3672:3760   */\n    tag_202:\n        /* \"#utility.yul\":3780:3790   */\n      dup1\n        /* \"#utility.yul\":3776:3778   */\n      0x40\n        /* \"#utility.yul\":3769:3791   */\n      mstore\n        /* \"#utility.yul\":3559:3797   */\n      pop\n        /* \"#utility.yul\":3516:3797   */\n      pop\n      pop\n      jump\t// out\n        /* \"#utility.yul\":3803:3932   */\n    tag_122:\n        /* \"#utility.yul\":3837:3843   */\n      0x00\n        /* \"#utility.yul\":3864:3884   */\n      tag_205\n      tag_106\n      jump\t// in\n    tag_205:\n        /* \"#utility.yul\":3854:3884   */\n      swap1\n      pop\n        /* \"#utility.yul\":3893:3926   */\n      tag_206\n        /* \"#utility.yul\":3921:3925   */\n      dup3\n        /* \"#utility.yul\":3913:3919   */\n      dup3\n        /* \"#utility.yul\":3893:3926   */\n      tag_121\n      jump\t// in\n    tag_206:\n        /* \"#utility.yul\":3803:3932   */\n      swap2\n      swap1\n      pop\n      jump\t// out\n        /* \"#utility.yul\":3938:4246   */\n    tag_123:\n        /* \"#utility.yul\":4000:4004   */\n      0x00\n        /* \"#utility.yul\":4090:4108   */\n      0xffffffffffffffff\n        /* \"#utility.yul\":4082:4088   */\n      dup3\n        /* \"#utility.yul\":4079:4109   */\n      gt\n        /* \"#utility.yul\":4076:4132   */\n      iszero\n      tag_208\n      jumpi\n        /* \"#utility.yul\":4112:4130   */\n      tag_209\n      tag_120\n      jump\t// in\n    tag_209:\n        /* \"#utility.yul\":4076:4132   */\n    tag_208:\n        /* \"#utility.yul\":4150:4179   */\n      tag_210\n        /* \"#utility.yul\":4172:4178   */\n      dup3\n        /* \"#utility.yul\":4150:4179   */\n      tag_115\n      jump\t// in\n    tag_210:\n        /* \"#utility.yul\":4142:4179   */\n      swap1\n      pop\n        /* \"#utility.yul\":4234:4238   */\n      0x20\n        /* \"#utility.yul\":4228:4232   */\n      dup2\n        /* \"#utility.yul\":4224:4239   */\n      add\n        /* \"#utility.yul\":4216:4239   */\n      swap1\n      pop\n        /* \"#utility.yul\":3938:4246   */\n      swap2\n      swap1\n      pop\n      jump\t// out\n        /* \"#utility.yul\":4252:4400   */\n    tag_124:\n        /* \"#utility.yul\":4350:4356   */\n      dup3\n        /* \"#utility.yul\":4345:4348   */\n      dup2\n        /* \"#utility.yul\":4340:4343   */\n      dup4\n        /* \"#utility.yul\":4327:4357   */\n      calldatacopy\n        /* \"#utility.yul\":4391:4392   */\n      0x00\n        /* \"#utility.yul\":4382:4388   */\n      dup4\n        /* \"#utility.yul\":4377:4380   */\n      dup4\n        /* \"#utility.yul\":4373:4389   */\n      add\n        /* \"#utility.yul\":4366:4393   */\n      mstore\n        /* \"#utility.yul\":4252:4400   */\n      pop\n      pop\n      pop\n      jump\t// out\n        /* \"#utility.yul\":4406:4831   */\n    tag_125:\n        /* \"#utility.yul\":4484:4489   */\n      0x00\n        /* \"#utility.yul\":4509:4575   */\n      tag_213\n        /* \"#utility.yul\":4525:4574   */\n      tag_214\n        /* \"#utility.yul\":4567:4573   */\n      dup5\n        /* \"#utility.yul\":4525:4574   */\n      tag_123\n      jump\t// in\n    tag_214:\n        /* \"#utility.yul\":4509:4575   */\n      tag_122\n      jump\t// in\n    tag_213:\n        /* \"#utility.yul\":4500:4575   */\n      swap1\n      pop\n        /* \"#utility.yul\":4598:4604   */\n      dup3\n        /* \"#utility.yul\":4591:4596   */\n      dup2\n        /* \"#utility.yul\":4584:4605   */\n      mstore\n        /* \"#utility.yul\":4636:4640   */\n      0x20\n        /* \"#utility.yul\":4629:4634   */\n      dup2\n        /* \"#utility.yul\":4625:4641   */\n      add\n        /* \"#utility.yul\":4674:4677   */\n      dup5\n        /* \"#utility.yul\":4665:4671   */\n      dup5\n        /* \"#utility.yul\":4660:4663   */\n      dup5\n        /* \"#utility.yul\":4656:4672   */\n      add\n        /* \"#utility.yul\":4653:4678   */\n      gt\n        /* \"#utility.yul\":4650:4762   */\n      iszero\n      tag_215\n      jumpi\n        /* \"#utility.yul\":4681:4760   */\n      tag_216\n      tag_119\n      jump\t// in\n    tag_216:\n        /* \"#utility.yul\":4650:4762   */\n    tag_215:\n        /* \"#utility.yul\":4771:4825   */\n      tag_217\n        /* \"#utility.yul\":4818:4824   */\n      dup5\n        /* \"#utility.yul\":4813:4816   */\n      dup3\n        /* \"#utility.yul\":4808:4811   */\n      dup6\n        /* \"#utility.yul\":4771:4825   */\n      tag_124\n      jump\t// in\n    tag_217:\n        /* \"#utility.yul\":4490:4831   */\n      pop\n        /* \"#utility.yul\":4406:4831   */\n      swap4\n      swap3\n      pop\n      pop\n      pop\n      jump\t// out\n        /* \"#utility.yul\":4851:5191   */\n    tag_126:\n        /* \"#utility.yul\":4907:4912   */\n      0x00\n        /* \"#utility.yul\":4956:4959   */\n      dup3\n        /* \"#utility.yul\":4949:4953   */\n      0x1f\n        /* \"#utility.yul\":4941:4947   */\n      dup4\n        /* \"#utility.yul\":4937:4954   */\n      add\n        /* \"#utility.yul\":4933:4960   */\n      slt\n        /* \"#utility.yul\":4923:5045   */\n      tag_219\n      jumpi\n        /* \"#utility.yul\":4964:5043   */\n      tag_220\n      tag_118\n      jump\t// in\n    tag_220:\n        /* \"#utility.yul\":4923:5045   */\n    tag_219:\n        /* \"#utility.yul\":5081:5087   */\n      dup2\n        /* \"#utility.yul\":5068:5088   */\n      calldataload\n        /* \"#utility.yul\":5106:5185   */\n      tag_221\n        /* \"#utility.yul\":5181:5184   */\n      dup5\n        /* \"#utility.yul\":5173:5179   */\n      dup3\n        /* \"#utility.yul\":5166:5170   */\n      0x20\n        /* \"#utility.yul\":5158:5164   */\n      dup7\n        /* \"#utility.yul\":5154:5171   */\n      add\n        /* \"#utility.yul\":5106:5185   */\n      tag_125\n      jump\t// in\n    tag_221:\n        /* \"#utility.yul\":5097:5185   */\n      swap2\n      pop\n        /* \"#utility.yul\":4913:5191   */\n      pop\n        /* \"#utility.yul\":4851:5191   */\n      swap3\n      swap2\n      pop\n      pop\n      jump\t// out\n        /* \"#utility.yul\":5197:5996   */\n    tag_24:\n        /* \"#utility.yul\":5284:5290   */\n      0x00\n        /* \"#utility.yul\":5292:5298   */\n      dup1\n        /* \"#utility.yul\":5300:5306   */\n      0x00\n        /* \"#utility.yul\":5349:5351   */\n      0x60\n        /* \"#utility.yul\":5337:5346   */\n      dup5\n        /* \"#utility.yul\":5328:5335   */\n      dup7\n        /* \"#utility.yul\":5324:5347   */\n      sub\n        /* \"#utility.yul\":5320:5352   */\n      slt\n        /* \"#utility.yul\":5317:5436   */\n      iszero\n      tag_223\n      jumpi\n        /* \"#utility.yul\":5355:5434   */\n      tag_224\n      tag_107\n      jump\t// in\n    tag_224:\n        /* \"#utility.yul\":5317:5436   */\n    tag_223:\n        /* \"#utility.yul\":5503:5504   */\n      0x00\n        /* \"#utility.yul\":5492:5501   */\n      dup5\n        /* \"#utility.yul\":5488:5505   */\n      add\n        /* \"#utility.yul\":5475:5506   */\n      calldataload\n        /* \"#utility.yul\":5533:5551   */\n      0xffffffffffffffff\n        /* \"#utility.yul\":5525:5531   */\n      dup2\n        /* \"#utility.yul\":5522:5552   */\n      gt\n        /* \"#utility.yul\":5519:5636   */\n      iszero\n      tag_225\n      jumpi\n        /* \"#utility.yul\":5555:5634   */\n      tag_226\n      tag_108\n      jump\t// in\n    tag_226:\n        /* \"#utility.yul\":5519:5636   */\n    tag_225:\n        /* \"#utility.yul\":5660:5723   */\n      tag_227\n        /* \"#utility.yul\":5715:5722   */\n      dup7\n        /* \"#utility.yul\":5706:5712   */\n      dup3\n        /* \"#utility.yul\":5695:5704   */\n      dup8\n        /* \"#utility.yul\":5691:5713   */\n      add\n        /* \"#utility.yul\":5660:5723   */\n      tag_126\n      jump\t// in\n    tag_227:\n        /* \"#utility.yul\":5650:5723   */\n      swap4\n      pop\n        /* \"#utility.yul\":5446:5733   */\n      pop\n        /* \"#utility.yul\":5772:5774   */\n      0x20\n        /* \"#utility.yul\":5798:5851   */\n      tag_228\n        /* \"#utility.yul\":5843:5850   */\n      dup7\n        /* \"#utility.yul\":5834:5840   */\n      dup3\n        /* \"#utility.yul\":5823:5832   */\n      dup8\n        /* \"#utility.yul\":5819:5841   */\n      add\n        /* \"#utility.yul\":5798:5851   */\n      tag_111\n      jump\t// in\n    tag_228:\n        /* \"#utility.yul\":5788:5851   */\n      swap3\n      pop\n        /* \"#utility.yul\":5743:5861   */\n      pop\n        /* \"#utility.yul\":5900:5902   */\n      0x40\n        /* \"#utility.yul\":5926:5979   */\n      tag_229\n        /* \"#utility.yul\":5971:5978   */\n      dup7\n        /* \"#utility.yul\":5962:5968   */\n      dup3\n        /* \"#utility.yul\":5951:5960   */\n      dup8\n        /* \"#utility.yul\":5947:5969   */\n      add\n        /* \"#utility.yul\":5926:5979   */\n      tag_111\n      jump\t// in\n    tag_229:\n        /* \"#utility.yul\":5916:5979   */\n      swap2\n      pop\n        /* \"#utility.yul\":5871:5989   */\n      pop\n        /* \"#utility.yul\":5197:5996   */\n      swap3\n      pop\n      swap3\n      pop\n      swap3\n      jump\t// out\n        /* \"#utility.yul\":6002:6128   */\n    tag_127:\n        /* \"#utility.yul\":6039:6046   */\n      0x00\n        /* \"#utility.yul\":6079:6121   */\n      0xffffffffffffffffffffffffffffffffffffffff\n        /* \"#utility.yul\":6072:6077   */\n      dup3\n        /* \"#utility.yul\":6068:6122   */\n      and\n        /* \"#utility.yul\":6057:6122   */\n      swap1\n      pop\n        /* \"#utility.yul\":6002:6128   */\n      swap2\n      swap1\n      pop\n      jump\t// out\n        /* \"#utility.yul\":6134:6230   */\n    tag_128:\n        /* \"#utility.yul\":6171:6178   */\n      0x00\n        /* \"#utility.yul\":6200:6224   */\n      tag_232\n        /* \"#utility.yul\":6218:6223   */\n      dup3\n        /* \"#utility.yul\":6200:6224   */\n      tag_127\n      jump\t// in\n    tag_232:\n        /* \"#utility.yul\":6189:6224   */\n      swap1\n      pop\n        /* \"#utility.yul\":6134:6230   */\n      swap2\n      swap1\n      pop\n      jump\t// out\n        /* \"#utility.yul\":6236:6354   */\n    tag_129:\n        /* \"#utility.yul\":6323:6347   */\n      tag_234\n        /* \"#utility.yul\":6341:6346   */\n      dup2\n        /* \"#utility.yul\":6323:6347   */\n      tag_128\n      jump\t// in\n    tag_234:\n        /* \"#utility.yul\":6318:6321   */\n      dup3\n        /* \"#utility.yul\":6311:6348   */\n      mstore\n        /* \"#utility.yul\":6236:6354   */\n      pop\n      pop\n      jump\t// out\n        /* \"#utility.yul\":6360:6582   */\n    tag_30:\n        /* \"#utility.yul\":6453:6457   */\n      0x00\n        /* \"#utility.yul\":6491:6493   */\n      0x20\n        /* \"#utility.yul\":6480:6489   */\n      dup3\n        /* \"#utility.yul\":6476:6494   */\n      add\n        /* \"#utility.yul\":6468:6494   */\n      swap1\n      pop\n        /* \"#utility.yul\":6504:6575   */\n      tag_236\n        /* \"#utility.yul\":6572:6573   */\n      0x00\n        /* \"#utility.yul\":6561:6570   */\n      dup4\n        /* \"#utility.yul\":6557:6574   */\n      add\n        /* \"#utility.yul\":6548:6554   */\n      dup5\n        /* \"#utility.yul\":6504:6575   */\n      tag_129\n      jump\t// in\n    tag_236:\n        /* \"#utility.yul\":6360:6582   */\n      swap3\n      swap2\n      pop\n      pop\n      jump\t// out\n        /* \"#utility.yul\":6588:6810   */\n    tag_36:\n        /* \"#utility.yul\":6681:6685   */\n      0x00\n        /* \"#utility.yul\":6719:6721   */\n      0x20\n        /* \"#utility.yul\":6708:6717   */\n      dup3\n        /* \"#utility.yul\":6704:6722   */\n      add\n        /* \"#utility.yul\":6696:6722   */\n      swap1\n      pop\n        /* \"#utility.yul\":6732:6803   */\n      tag_238\n        /* \"#utility.yul\":6800:6801   */\n      0x00\n        /* \"#utility.yul\":6789:6798   */\n      dup4\n        /* \"#utility.yul\":6785:6802   */\n      add\n        /* \"#utility.yul\":6776:6782   */\n      dup5\n        /* \"#utility.yul\":6732:6803   */\n      tag_117\n      jump\t// in\n    tag_238:\n        /* \"#utility.yul\":6588:6810   */\n      swap3\n      swap2\n      pop\n      pop\n      jump\t// out\n        /* \"#utility.yul\":6816:7761   */\n    tag_44:\n        /* \"#utility.yul\":6912:6918   */\n      0x00\n        /* \"#utility.yul\":6920:6926   */\n      dup1\n        /* \"#utility.yul\":6928:6934   */\n      0x00\n        /* \"#utility.yul\":6936:6942   */\n      dup1\n        /* \"#utility.yul\":6985:6988   */\n      0x80\n        /* \"#utility.yul\":6973:6982   */\n      dup6\n        /* \"#utility.yul\":6964:6971   */\n      dup8\n        /* \"#utility.yul\":6960:6983   */\n      sub\n        /* \"#utility.yul\":6956:6989   */\n      slt\n        /* \"#utility.yul\":6953:7073   */\n      iszero\n      tag_240\n      jumpi\n        /* \"#utility.yul\":6992:7071   */\n      tag_241\n      tag_107\n      jump\t// in\n    tag_241:\n        /* \"#utility.yul\":6953:7073   */\n    tag_240:\n        /* \"#utility.yul\":7112:7113   */\n      0x00\n        /* \"#utility.yul\":7137:7190   */\n      tag_242\n        /* \"#utility.yul\":7182:7189   */\n      dup8\n        /* \"#utility.yul\":7173:7179   */\n      dup3\n        /* \"#utility.yul\":7162:7171   */\n      dup9\n        /* \"#utility.yul\":7158:7180   */\n      add\n        /* \"#utility.yul\":7137:7190   */\n      tag_111\n      jump\t// in\n    tag_242:\n        /* \"#utility.yul\":7127:7190   */\n      swap5\n      pop\n        /* \"#utility.yul\":7083:7200   */\n      pop\n        /* \"#utility.yul\":7267:7269   */\n      0x20\n        /* \"#utility.yul\":7256:7265   */\n      dup6\n        /* \"#utility.yul\":7252:7270   */\n      add\n        /* \"#utility.yul\":7239:7271   */\n      calldataload\n        /* \"#utility.yul\":7298:7316   */\n      0xffffffffffffffff\n        /* \"#utility.yul\":7290:7296   */\n      dup2\n        /* \"#utility.yul\":7287:7317   */\n      gt\n        /* \"#utility.yul\":7284:7401   */\n      iszero\n      tag_243\n      jumpi\n        /* \"#utility.yul\":7320:7399   */\n      tag_244\n      tag_108\n      jump\t// in\n    tag_244:\n        /* \"#utility.yul\":7284:7401   */\n    tag_243:\n        /* \"#utility.yul\":7425:7488   */\n      tag_245\n        /* \"#utility.yul\":7480:7487   */\n      dup8\n        /* \"#utility.yul\":7471:7477   */\n      dup3\n        /* \"#utility.yul\":7460:7469   */\n      dup9\n        /* \"#utility.yul\":7456:7478   */\n      add\n        /* \"#utility.yul\":7425:7488   */\n      tag_126\n      jump\t// in\n    tag_245:\n        /* \"#utility.yul\":7415:7488   */\n      swap4\n      pop\n        /* \"#utility.yul\":7210:7498   */\n      pop\n        /* \"#utility.yul\":7537:7539   */\n      0x40\n        /* \"#utility.yul\":7563:7616   */\n      tag_246\n        /* \"#utility.yul\":7608:7615   */\n      dup8\n        /* \"#utility.yul\":7599:7605   */\n      dup3\n        /* \"#utility.yul\":7588:7597   */\n      dup9\n        /* \"#utility.yul\":7584:7606   */\n      add\n        /* \"#utility.yul\":7563:7616   */\n      tag_111\n      jump\t// in\n    tag_246:\n        /* \"#utility.yul\":7553:7616   */\n      swap3\n      pop\n        /* \"#utility.yul\":7508:7626   */\n      pop\n        /* \"#utility.yul\":7665:7667   */\n      0x60\n        /* \"#utility.yul\":7691:7744   */\n      tag_247\n        /* \"#utility.yul\":7736:7743   */\n      dup8\n        /* \"#utility.yul\":7727:7733   */\n      dup3\n        /* \"#utility.yul\":7716:7725   */\n      dup9\n        /* \"#utility.yul\":7712:7734   */\n      add\n        /* \"#utility.yul\":7691:7744   */\n      tag_111\n      jump\t// in\n    tag_247:\n        /* \"#utility.yul\":7681:7744   */\n      swap2\n      pop\n        /* \"#utility.yul\":7636:7754   */\n      pop\n        /* \"#utility.yul\":6816:7761   */\n      swap3\n      swap6\n      swap2\n      swap5\n      pop\n      swap3\n      pop\n      jump\t// out\n        /* \"#utility.yul\":7767:7936   */\n    tag_130:\n        /* \"#utility.yul\":7907:7928   */\n      0x426f6f6b20646f6573206e6f7420657869737400000000000000000000000000\n        /* \"#utility.yul\":7903:7904   */\n      0x00\n        /* \"#utility.yul\":7895:7901   */\n      dup3\n        /* \"#utility.yul\":7891:7905   */\n      add\n        /* \"#utility.yul\":7884:7929   */\n      mstore\n        /* \"#utility.yul\":7767:7936   */\n      pop\n      jump\t// out\n        /* \"#utility.yul\":7942:8308   */\n    tag_131:\n        /* \"#utility.yul\":8084:8087   */\n      0x00\n        /* \"#utility.yul\":8105:8172   */\n      tag_250\n        /* \"#utility.yul\":8169:8171   */\n      0x13\n        /* \"#utility.yul\":8164:8167   */\n      dup4\n        /* \"#utility.yul\":8105:8172   */\n      tag_113\n      jump\t// in\n    tag_250:\n        /* \"#utility.yul\":8098:8172   */\n      swap2\n      pop\n        /* \"#utility.yul\":8181:8274   */\n      tag_251\n        /* \"#utility.yul\":8270:8273   */\n      dup3\n        /* \"#utility.yul\":8181:8274   */\n      tag_130\n      jump\t// in\n    tag_251:\n        /* \"#utility.yul\":8299:8301   */\n      0x20\n        /* \"#utility.yul\":8294:8297   */\n      dup3\n        /* \"#utility.yul\":8290:8302   */\n      add\n        /* \"#utility.yul\":8283:8302   */\n      swap1\n      pop\n        /* \"#utility.yul\":7942:8308   */\n      swap2\n      swap1\n      pop\n      jump\t// out\n        /* \"#utility.yul\":8314:8733   */\n    tag_49:\n        /* \"#utility.yul\":8480:8484   */\n      0x00\n        /* \"#utility.yul\":8518:8520   */\n      0x20\n        /* \"#utility.yul\":8507:8516   */\n      dup3\n        /* \"#utility.yul\":8503:8521   */\n      add\n        /* \"#utility.yul\":8495:8521   */\n      swap1\n      pop\n        /* \"#utility.yul\":8567:8576   */\n      dup2\n        /* \"#utility.yul\":8561:8565   */\n      dup2\n        /* \"#utility.yul\":8557:8577   */\n      sub\n        /* \"#utility.yul\":8553:8554   */\n      0x00\n        /* \"#utility.yul\":8542:8551   */\n      dup4\n        /* \"#utility.yul\":8538:8555   */\n      add\n        /* \"#utility.yul\":8531:8578   */\n      mstore\n        /* \"#utility.yul\":8595:8726   */\n      tag_253\n        /* \"#utility.yul\":8721:8725   */\n      dup2\n        /* \"#utility.yul\":8595:8726   */\n      tag_131\n      jump\t// in\n    tag_253:\n        /* \"#utility.yul\":8587:8726   */\n      swap1\n      pop\n        /* \"#utility.yul\":8314:8733   */\n      swap2\n      swap1\n      pop\n      jump\t// out\n        /* \"#utility.yul\":8739:8909   */\n    tag_132:\n        /* \"#utility.yul\":8879:8901   */\n      0x426f6f6b206973206f7574206f662073746f636b000000000000000000000000\n        /* \"#utility.yul\":8875:8876   */\n      0x00\n        /* \"#utility.yul\":8867:8873   */\n      dup3\n        /* \"#utility.yul\":8863:8877   */\n      add\n        /* \"#utility.yul\":8856:8902   */\n      mstore\n        /* \"#utility.yul\":8739:8909   */\n      pop\n      jump\t// out\n        /* \"#utility.yul\":8915:9281   */\n    tag_133:\n        /* \"#utility.yul\":9057:9060   */\n      0x00\n        /* \"#utility.yul\":9078:9145   */\n      tag_256\n        /* \"#utility.yul\":9142:9144   */\n      0x14\n        /* \"#utility.yul\":9137:9140   */\n      dup4\n        /* \"#utility.yul\":9078:9145   */\n      tag_113\n      jump\t// in\n    tag_256:\n        /* \"#utility.yul\":9071:9145   */\n      swap2\n      pop\n        /* \"#utility.yul\":9154:9247   */\n      tag_257\n        /* \"#utility.yul\":9243:9246   */\n      dup3\n        /* \"#utility.yul\":9154:9247   */\n      tag_132\n      jump\t// in\n    tag_257:\n        /* \"#utility.yul\":9272:9274   */\n      0x20\n        /* \"#utility.yul\":9267:9270   */\n      dup3\n        /* \"#utility.yul\":9263:9275   */\n      add\n        /* \"#utility.yul\":9256:9275   */\n      swap1\n      pop\n        /* \"#utility.yul\":8915:9281   */\n      swap2\n      swap1\n      pop\n      jump\t// out\n        /* \"#utility.yul\":9287:9706   */\n    tag_52:\n        /* \"#utility.yul\":9453:9457   */\n      0x00\n        /* \"#utility.yul\":9491:9493   */\n      0x20\n        /* \"#utility.yul\":9480:9489   */\n      dup3\n        /* \"#utility.yul\":9476:9494   */\n      add\n        /* \"#utility.yul\":9468:9494   */\n      swap1\n      pop\n        /* \"#utility.yul\":9540:9549   */\n      dup2\n        /* \"#utility.yul\":9534:9538   */\n      dup2\n        /* \"#utility.yul\":9530:9550   */\n      sub\n        /* \"#utility.yul\":9526:9527   */\n      0x00\n        /* \"#utility.yul\":9515:9524   */\n      dup4\n        /* \"#utility.yul\":9511:9528   */\n      add\n        /* \"#utility.yul\":9504:9551   */\n      mstore\n        /* \"#utility.yul\":9568:9699   */\n      tag_259\n        /* \"#utility.yul\":9694:9698   */\n      dup2\n        /* \"#utility.yul\":9568:9699   */\n      tag_133\n      jump\t// in\n    tag_259:\n        /* \"#utility.yul\":9560:9699   */\n      swap1\n      pop\n        /* \"#utility.yul\":9287:9706   */\n      swap2\n      swap1\n      pop\n      jump\t// out\n        /* \"#utility.yul\":9712:9882   */\n    tag_134:\n        /* \"#utility.yul\":9852:9874   */\n      0x496e73756666696369656e74207061796d656e74000000000000000000000000\n        /* \"#utility.yul\":9848:9849   */\n      0x00\n        /* \"#utility.yul\":9840:9846   */\n      dup3\n        /* \"#utility.yul\":9836:9850   */\n      add\n        /* \"#utility.yul\":9829:9875   */\n      mstore\n        /* \"#utility.yul\":9712:9882   */\n      pop\n      jump\t// out\n        /* \"#utility.yul\":9888:10254   */\n    tag_135:\n        /* \"#utility.yul\":10030:10033   */\n      0x00\n        /* \"#utility.yul\":10051:10118   */\n      tag_262\n        /* \"#utility.yul\":10115:10117   */\n      0x14\n        /* \"#utility.yul\":10110:10113   */\n      dup4\n        /* \"#utility.yul\":10051:10118   */\n      tag_113\n      jump\t// in\n    tag_262:\n        /* \"#utility.yul\":10044:10118   */\n      swap2\n      pop\n        /* \"#utility.yul\":10127:10220   */\n      tag_263\n        /* \"#utility.yul\":10216:10219   */\n      dup3\n        /* \"#utility.yul\":10127:10220   */\n      tag_134\n      jump\t// in\n    tag_263:\n        /* \"#utility.yul\":10245:10247   */\n      0x20\n        /* \"#utility.yul\":10240:10243   */\n      dup3\n        /* \"#utility.yul\":10236:10248   */\n      add\n        /* \"#utility.yul\":10229:10248   */\n      swap1\n      pop\n        /* \"#utility.yul\":9888:10254   */\n      swap2\n      swap1\n      pop\n      jump\t// out\n        /* \"#utility.yul\":10260:10679   */\n    tag_55:\n        /* \"#utility.yul\":10426:10430   */\n      0x00\n        /* \"#utility.yul\":10464:10466   */\n      0x20\n        /* \"#utility.yul\":10453:10462   */\n      dup3\n        /* \"#utility.yul\":10449:10467   */\n      add\n        /* \"#utility.yul\":10441:10467   */\n      swap1\n      pop\n        /* \"#utility.yul\":10513:10522   */\n      dup2\n        /* \"#utility.yul\":10507:10511   */\n      dup2\n        /* \"#utility.yul\":10503:10523   */\n      sub\n        /* \"#utility.yul\":10499:10500   */\n      0x00\n        /* \"#utility.yul\":10488:10497   */\n      dup4\n        /* \"#utility.yul\":10484:10501   */\n      add\n        /* \"#utility.yul\":10477:10524   */\n      mstore\n        /* \"#utility.yul\":10541:10672   */\n      tag_265\n        /* \"#utility.yul\":10667:10671   */\n      dup2\n        /* \"#utility.yul\":10541:10672   */\n      tag_135\n      jump\t// in\n    tag_265:\n        /* \"#utility.yul\":10533:10672   */\n      swap1\n      pop\n        /* \"#utility.yul\":10260:10679   */\n      swap2\n      swap1\n      pop\n      jump\t// out\n        /* \"#utility.yul\":10685:10865   */\n    tag_136:\n        /* \"#utility.yul\":10733:10810   */\n      0x4e487b7100000000000000000000000000000000000000000000000000000000\n        /* \"#utility.yul\":10730:10731   */\n      0x00\n        /* \"#utility.yul\":10723:10811   */\n      mstore\n        /* \"#utility.yul\":10830:10834   */\n      0x11\n        /* \"#utility.yul\":10827:10828   */\n      0x04\n        /* \"#utility.yul\":10820:10835   */\n      mstore\n        /* \"#utility.yul\":10854:10858   */\n      0x24\n        /* \"#utility.yul\":10851:10852   */\n      0x00\n        /* \"#utility.yul\":10844:10859   */\n      revert\n        /* \"#utility.yul\":10871:11281   */\n    tag_57:\n        /* \"#utility.yul\":10911:10918   */\n      0x00\n        /* \"#utility.yul\":10934:10954   */\n      tag_268\n        /* \"#utility.yul\":10952:10953   */\n      dup3\n        /* \"#utility.yul\":10934:10954   */\n      tag_109\n      jump\t// in\n    tag_268:\n        /* \"#utility.yul\":10929:10954   */\n      swap2\n      pop\n        /* \"#utility.yul\":10968:10988   */\n      tag_269\n        /* \"#utility.yul\":10986:10987   */\n      dup4\n        /* \"#utility.yul\":10968:10988   */\n      tag_109\n      jump\t// in\n    tag_269:\n        /* \"#utility.yul\":10963:10988   */\n      swap3\n      pop\n        /* \"#utility.yul\":11023:11024   */\n      dup3\n        /* \"#utility.yul\":11020:11021   */\n      dup3\n        /* \"#utility.yul\":11016:11025   */\n      mul\n        /* \"#utility.yul\":11045:11075   */\n      tag_270\n        /* \"#utility.yul\":11063:11074   */\n      dup2\n        /* \"#utility.yul\":11045:11075   */\n      tag_109\n      jump\t// in\n    tag_270:\n        /* \"#utility.yul\":11034:11075   */\n      swap2\n      pop\n        /* \"#utility.yul\":11224:11225   */\n      dup3\n        /* \"#utility.yul\":11215:11222   */\n      dup3\n        /* \"#utility.yul\":11211:11226   */\n      div\n        /* \"#utility.yul\":11208:11209   */\n      dup5\n        /* \"#utility.yul\":11205:11227   */\n      eq\n        /* \"#utility.yul\":11185:11186   */\n      dup4\n        /* \"#utility.yul\":11178:11187   */\n      iszero\n        /* \"#utility.yul\":11158:11241   */\n      or\n        /* \"#utility.yul\":11135:11274   */\n      tag_271\n      jumpi\n        /* \"#utility.yul\":11254:11272   */\n      tag_272\n      tag_136\n      jump\t// in\n    tag_272:\n        /* \"#utility.yul\":11135:11274   */\n    tag_271:\n        /* \"#utility.yul\":10919:11281   */\n      pop\n        /* \"#utility.yul\":10871:11281   */\n      swap3\n      swap2\n      pop\n      pop\n      jump\t// out\n        /* \"#utility.yul\":11287:11462   */\n    tag_137:\n        /* \"#utility.yul\":11427:11454   */\n      0x496e636f7272656374207061796d656e7420616d6f756e742e00000000000000\n        /* \"#utility.yul\":11423:11424   */\n      0x00\n        /* \"#utility.yul\":11415:11421   */\n      dup3\n        /* \"#utility.yul\":11411:11425   */\n      add\n        /* \"#utility.yul\":11404:11455   */\n      mstore\n        /* \"#utility.yul\":11287:11462   */\n      pop\n      jump\t// out\n        /* \"#utility.yul\":11468:11834   */\n    tag_138:\n        /* \"#utility.yul\":11610:11613   */\n      0x00\n        /* \"#utility.yul\":11631:11698   */\n      tag_275\n        /* \"#utility.yul\":11695:11697   */\n      0x19\n        /* \"#utility.yul\":11690:11693   */\n      dup4\n        /* \"#utility.yul\":11631:11698   */\n      tag_113\n      jump\t// in\n    tag_275:\n        /* \"#utility.yul\":11624:11698   */\n      swap2\n      pop\n        /* \"#utility.yul\":11707:11800   */\n      tag_276\n        /* \"#utility.yul\":11796:11799   */\n      dup3\n        /* \"#utility.yul\":11707:11800   */\n      tag_137\n      jump\t// in\n    tag_276:\n        /* \"#utility.yul\":11825:11827   */\n      0x20\n        /* \"#utility.yul\":11820:11823   */\n      dup3\n        /* \"#utility.yul\":11816:11828   */\n      add\n        /* \"#utility.yul\":11809:11828   */\n      swap1\n      pop\n        /* \"#utility.yul\":11468:11834   */\n      swap2\n      swap1\n      pop\n      jump\t// out\n        /* \"#utility.yul\":11840:12259   */\n    tag_60:\n        /* \"#utility.yul\":12006:12010   */\n      0x00\n        /* \"#utility.yul\":12044:12046   */\n      0x20\n        /* \"#utility.yul\":12033:12042   */\n      dup3\n        /* \"#utility.yul\":12029:12047   */\n      add\n        /* \"#utility.yul\":12021:12047   */\n      swap1\n      pop\n        /* \"#utility.yul\":12093:12102   */\n      dup2\n        /* \"#utility.yul\":12087:12091   */\n      dup2\n        /* \"#utility.yul\":12083:12103   */\n      sub\n        /* \"#utility.yul\":12079:12080   */\n      0x00\n        /* \"#utility.yul\":12068:12077   */\n      dup4\n        /* \"#utility.yul\":12064:12081   */\n      add\n        /* \"#utility.yul\":12057:12104   */\n      mstore\n        /* \"#utility.yul\":12121:12252   */\n      tag_278\n        /* \"#utility.yul\":12247:12251   */\n      dup2\n        /* \"#utility.yul\":12121:12252   */\n      tag_138\n      jump\t// in\n    tag_278:\n        /* \"#utility.yul\":12113:12252   */\n      swap1\n      pop\n        /* \"#utility.yul\":11840:12259   */\n      swap2\n      swap1\n      pop\n      jump\t// out\n        /* \"#utility.yul\":12265:12436   */\n    tag_62:\n        /* \"#utility.yul\":12304:12307   */\n      0x00\n        /* \"#utility.yul\":12327:12351   */\n      tag_280\n        /* \"#utility.yul\":12345:12350   */\n      dup3\n        /* \"#utility.yul\":12327:12351   */\n      tag_109\n      jump\t// in\n    tag_280:\n        /* \"#utility.yul\":12318:12351   */\n      swap2\n      pop\n        /* \"#utility.yul\":12373:12377   */\n      0x00\n        /* \"#utility.yul\":12366:12371   */\n      dup3\n        /* \"#utility.yul\":12363:12378   */\n      sub\n        /* \"#utility.yul\":12360:12401   */\n      tag_281\n      jumpi\n        /* \"#utility.yul\":12381:12399   */\n      tag_282\n      tag_136\n      jump\t// in\n    tag_282:\n        /* \"#utility.yul\":12360:12401   */\n    tag_281:\n        /* \"#utility.yul\":12428:12429   */\n      0x01\n        /* \"#utility.yul\":12421:12426   */\n      dup3\n        /* \"#utility.yul\":12417:12430   */\n      sub\n        /* \"#utility.yul\":12410:12430   */\n      swap1\n      pop\n        /* \"#utility.yul\":12265:12436   */\n      swap2\n      swap1\n      pop\n      jump\t// out\n        /* \"#utility.yul\":12442:12884   */\n    tag_66:\n        /* \"#utility.yul\":12591:12595   */\n      0x00\n        /* \"#utility.yul\":12629:12631   */\n      0x60\n        /* \"#utility.yul\":12618:12627   */\n      dup3\n        /* \"#utility.yul\":12614:12632   */\n      add\n        /* \"#utility.yul\":12606:12632   */\n      swap1\n      pop\n        /* \"#utility.yul\":12642:12713   */\n      tag_284\n        /* \"#utility.yul\":12710:12711   */\n      0x00\n        /* \"#utility.yul\":12699:12708   */\n      dup4\n        /* \"#utility.yul\":12695:12712   */\n      add\n        /* \"#utility.yul\":12686:12692   */\n      dup7\n        /* \"#utility.yul\":12642:12713   */\n      tag_117\n      jump\t// in\n    tag_284:\n        /* \"#utility.yul\":12723:12795   */\n      tag_285\n        /* \"#utility.yul\":12791:12793   */\n      0x20\n        /* \"#utility.yul\":12780:12789   */\n      dup4\n        /* \"#utility.yul\":12776:12794   */\n      add\n        /* \"#utility.yul\":12767:12773   */\n      dup6\n        /* \"#utility.yul\":12723:12795   */\n      tag_129\n      jump\t// in\n    tag_285:\n        /* \"#utility.yul\":12805:12877   */\n      tag_286\n        /* \"#utility.yul\":12873:12875   */\n      0x40\n        /* \"#utility.yul\":12862:12871   */\n      dup4\n        /* \"#utility.yul\":12858:12876   */\n      add\n        /* \"#utility.yul\":12849:12855   */\n      dup5\n        /* \"#utility.yul\":12805:12877   */\n      tag_117\n      jump\t// in\n    tag_286:\n        /* \"#utility.yul\":12442:12884   */\n      swap5\n      swap4\n      pop\n      pop\n      pop\n      pop\n      jump\t// out\n        /* \"#utility.yul\":12890:13070   */\n    tag_139:\n        /* \"#utility.yul\":12938:13015   */\n      0x4e487b7100000000000000000000000000000000000000000000000000000000\n        /* \"#utility.yul\":12935:12936   */\n      0x00\n        /* \"#utility.yul\":12928:13016   */\n      mstore\n        /* \"#utility.yul\":13035:13039   */\n      0x22\n        /* \"#utility.yul\":13032:13033   */\n      0x04\n        /* \"#utility.yul\":13025:13040   */\n      mstore\n        /* \"#utility.yul\":13059:13063   */\n      0x24\n        /* \"#utility.yul\":13056:13057   */\n      0x00\n        /* \"#utility.yul\":13049:13064   */\n      revert\n        /* \"#utility.yul\":13076:13396   */\n    tag_68:\n        /* \"#utility.yul\":13120:13126   */\n      0x00\n        /* \"#utility.yul\":13157:13158   */\n      0x02\n        /* \"#utility.yul\":13151:13155   */\n      dup3\n        /* \"#utility.yul\":13147:13159   */\n      div\n        /* \"#utility.yul\":13137:13159   */\n      swap1\n      pop\n        /* \"#utility.yul\":13204:13205   */\n      0x01\n        /* \"#utility.yul\":13198:13202   */\n      dup3\n        /* \"#utility.yul\":13194:13206   */\n      and\n        /* \"#utility.yul\":13225:13243   */\n      dup1\n        /* \"#utility.yul\":13215:13296   */\n      tag_289\n      jumpi\n        /* \"#utility.yul\":13281:13285   */\n      0x7f\n        /* \"#utility.yul\":13273:13279   */\n      dup3\n        /* \"#utility.yul\":13269:13286   */\n      and\n        /* \"#utility.yul\":13259:13286   */\n      swap2\n      pop\n        /* \"#utility.yul\":13215:13296   */\n    tag_289:\n        /* \"#utility.yul\":13343:13345   */\n      0x20\n        /* \"#utility.yul\":13335:13341   */\n      dup3\n        /* \"#utility.yul\":13332:13346   */\n      lt\n        /* \"#utility.yul\":13312:13330   */\n      dup2\n        /* \"#utility.yul\":13309:13347   */\n      sub\n        /* \"#utility.yul\":13306:13390   */\n      tag_290\n      jumpi\n        /* \"#utility.yul\":13362:13380   */\n      tag_291\n      tag_139\n      jump\t// in\n    tag_291:\n        /* \"#utility.yul\":13306:13390   */\n    tag_290:\n        /* \"#utility.yul\":13127:13396   */\n      pop\n        /* \"#utility.yul\":13076:13396   */\n      swap2\n      swap1\n      pop\n      jump\t// out\n        /* \"#utility.yul\":13402:13627   */\n    tag_140:\n        /* \"#utility.yul\":13542:13576   */\n      0x4f6e6c7920746865206f776e65722063616e20706572666f726d207468697320\n        /* \"#utility.yul\":13538:13539   */\n      0x00\n        /* \"#utility.yul\":13530:13536   */\n      dup3\n        /* \"#utility.yul\":13526:13540   */\n      add\n        /* \"#utility.yul\":13519:13577   */\n      mstore\n        /* \"#utility.yul\":13611:13619   */\n      0x616374696f6e0000000000000000000000000000000000000000000000000000\n        /* \"#utility.yul\":13606:13608   */\n      0x20\n        /* \"#utility.yul\":13598:13604   */\n      dup3\n        /* \"#utility.yul\":13594:13609   */\n      add\n        /* \"#utility.yul\":13587:13620   */\n      mstore\n        /* \"#utility.yul\":13402:13627   */\n      pop\n      jump\t// out\n        /* \"#utility.yul\":13633:13999   */\n    tag_141:\n        /* \"#utility.yul\":13775:13778   */\n      0x00\n        /* \"#utility.yul\":13796:13863   */\n      tag_294\n        /* \"#utility.yul\":13860:13862   */\n      0x26\n        /* \"#utility.yul\":13855:13858   */\n      dup4\n        /* \"#utility.yul\":13796:13863   */\n      tag_113\n      jump\t// in\n    tag_294:\n        /* \"#utility.yul\":13789:13863   */\n      swap2\n      pop\n        /* \"#utility.yul\":13872:13965   */\n      tag_295\n        /* \"#utility.yul\":13961:13964   */\n      dup3\n        /* \"#utility.yul\":13872:13965   */\n      tag_140\n      jump\t// in\n    tag_295:\n        /* \"#utility.yul\":13990:13992   */\n      0x40\n        /* \"#utility.yul\":13985:13988   */\n      dup3\n        /* \"#utility.yul\":13981:13993   */\n      add\n        /* \"#utility.yul\":13974:13993   */\n      swap1\n      pop\n        /* \"#utility.yul\":13633:13999   */\n      swap2\n      swap1\n      pop\n      jump\t// out\n        /* \"#utility.yul\":14005:14424   */\n    tag_76:\n        /* \"#utility.yul\":14171:14175   */\n      0x00\n        /* \"#utility.yul\":14209:14211   */\n      0x20\n        /* \"#utility.yul\":14198:14207   */\n      dup3\n        /* \"#utility.yul\":14194:14212   */\n      add\n        /* \"#utility.yul\":14186:14212   */\n      swap1\n      pop\n        /* \"#utility.yul\":14258:14267   */\n      dup2\n        /* \"#utility.yul\":14252:14256   */\n      dup2\n        /* \"#utility.yul\":14248:14268   */\n      sub\n        /* \"#utility.yul\":14244:14245   */\n      0x00\n        /* \"#utility.yul\":14233:14242   */\n      dup4\n        /* \"#utility.yul\":14229:14246   */\n      add\n        /* \"#utility.yul\":14222:14269   */\n      mstore\n        /* \"#utility.yul\":14286:14417   */\n      tag_297\n        /* \"#utility.yul\":14412:14416   */\n      dup2\n        /* \"#utility.yul\":14286:14417   */\n      tag_141\n      jump\t// in\n    tag_297:\n        /* \"#utility.yul\":14278:14417   */\n      swap1\n      pop\n        /* \"#utility.yul\":14005:14424   */\n      swap2\n      swap1\n      pop\n      jump\t// out\n        /* \"#utility.yul\":14430:14611   */\n    tag_142:\n        /* \"#utility.yul\":14570:14603   */\n      0x5072696365206d7573742062652067726561746572207468616e207a65726f00\n        /* \"#utility.yul\":14566:14567   */\n      0x00\n        /* \"#utility.yul\":14558:14564   */\n      dup3\n        /* \"#utility.yul\":14554:14568   */\n      add\n        /* \"#utility.yul\":14547:14604   */\n      mstore\n        /* \"#utility.yul\":14430:14611   */\n      pop\n      jump\t// out\n        /* \"#utility.yul\":14617:14983   */\n    tag_143:\n        /* \"#utility.yul\":14759:14762   */\n      0x00\n        /* \"#utility.yul\":14780:14847   */\n      tag_300\n        /* \"#utility.yul\":14844:14846   */\n      0x1f\n        /* \"#utility.yul\":14839:14842   */\n      dup4\n        /* \"#utility.yul\":14780:14847   */\n      tag_113\n      jump\t// in\n    tag_300:\n        /* \"#utility.yul\":14773:14847   */\n      swap2\n      pop\n        /* \"#utility.yul\":14856:14949   */\n      tag_301\n        /* \"#utility.yul\":14945:14948   */\n      dup3\n        /* \"#utility.yul\":14856:14949   */\n      tag_142\n      jump\t// in\n    tag_301:\n        /* \"#utility.yul\":14974:14976   */\n      0x20\n        /* \"#utility.yul\":14969:14972   */\n      dup3\n        /* \"#utility.yul\":14965:14977   */\n      add\n        /* \"#utility.yul\":14958:14977   */\n      swap1\n      pop\n        /* \"#utility.yul\":14617:14983   */\n      swap2\n      swap1\n      pop\n      jump\t// out\n        /* \"#utility.yul\":14989:15408   */\n    tag_80:\n        /* \"#utility.yul\":15155:15159   */\n      0x00\n        /* \"#utility.yul\":15193:15195   */\n      0x20\n        /* \"#utility.yul\":15182:15191   */\n      dup3\n        /* \"#utility.yul\":15178:15196   */\n      add\n        /* \"#utility.yul\":15170:15196   */\n      swap1\n      pop\n        /* \"#utility.yul\":15242:15251   */\n      dup2\n        /* \"#utility.yul\":15236:15240   */\n      dup2\n        /* \"#utility.yul\":15232:15252   */\n      sub\n        /* \"#utility.yul\":15228:15229   */\n      0x00\n        /* \"#utility.yul\":15217:15226   */\n      dup4\n        /* \"#utility.yul\":15213:15230   */\n      add\n        /* \"#utility.yul\":15206:15253   */\n      mstore\n        /* \"#utility.yul\":15270:15401   */\n      tag_303\n        /* \"#utility.yul\":15396:15400   */\n      dup2\n        /* \"#utility.yul\":15270:15401   */\n      tag_143\n      jump\t// in\n    tag_303:\n        /* \"#utility.yul\":15262:15401   */\n      swap1\n      pop\n        /* \"#utility.yul\":14989:15408   */\n      swap2\n      swap1\n      pop\n      jump\t// out\n        /* \"#utility.yul\":15414:15595   */\n    tag_144:\n        /* \"#utility.yul\":15554:15587   */\n      0x53746f636b206d7573742062652067726561746572207468616e207a65726f00\n        /* \"#utility.yul\":15550:15551   */\n      0x00\n        /* \"#utility.yul\":15542:15548   */\n      dup3\n        /* \"#utility.yul\":15538:15552   */\n      add\n        /* \"#utility.yul\":15531:15588   */\n      mstore\n        /* \"#utility.yul\":15414:15595   */\n      pop\n      jump\t// out\n        /* \"#utility.yul\":15601:15967   */\n    tag_145:\n        /* \"#utility.yul\":15743:15746   */\n      0x00\n        /* \"#utility.yul\":15764:15831   */\n      tag_306\n        /* \"#utility.yul\":15828:15830   */\n      0x1f\n        /* \"#utility.yul\":15823:15826   */\n      dup4\n        /* \"#utility.yul\":15764:15831   */\n      tag_113\n      jump\t// in\n    tag_306:\n        /* \"#utility.yul\":15757:15831   */\n      swap2\n      pop\n        /* \"#utility.yul\":15840:15933   */\n      tag_307\n        /* \"#utility.yul\":15929:15932   */\n      dup3\n        /* \"#utility.yul\":15840:15933   */\n      tag_144\n      jump\t// in\n    tag_307:\n        /* \"#utility.yul\":15958:15960   */\n      0x20\n        /* \"#utility.yul\":15953:15956   */\n      dup3\n        /* \"#utility.yul\":15949:15961   */\n      add\n        /* \"#utility.yul\":15942:15961   */\n      swap1\n      pop\n        /* \"#utility.yul\":15601:15967   */\n      swap2\n      swap1\n      pop\n      jump\t// out\n        /* \"#utility.yul\":15973:16392   */\n    tag_83:\n        /* \"#utility.yul\":16139:16143   */\n      0x00\n        /* \"#utility.yul\":16177:16179   */\n      0x20\n        /* \"#utility.yul\":16166:16175   */\n      dup3\n        /* \"#utility.yul\":16162:16180   */\n      add\n        /* \"#utility.yul\":16154:16180   */\n      swap1\n      pop\n        /* \"#utility.yul\":16226:16235   */\n      dup2\n        /* \"#utility.yul\":16220:16224   */\n      dup2\n        /* \"#utility.yul\":16216:16236   */\n      sub\n        /* \"#utility.yul\":16212:16213   */\n      0x00\n        /* \"#utility.yul\":16201:16210   */\n      dup4\n        /* \"#utility.yul\":16197:16214   */\n      add\n        /* \"#utility.yul\":16190:16237   */\n      mstore\n        /* \"#utility.yul\":16254:16385   */\n      tag_309\n        /* \"#utility.yul\":16380:16384   */\n      dup2\n        /* \"#utility.yul\":16254:16385   */\n      tag_145\n      jump\t// in\n    tag_309:\n        /* \"#utility.yul\":16246:16385   */\n      swap1\n      pop\n        /* \"#utility.yul\":15973:16392   */\n      swap2\n      swap1\n      pop\n      jump\t// out\n        /* \"#utility.yul\":16398:16539   */\n    tag_146:\n        /* \"#utility.yul\":16447:16451   */\n      0x00\n        /* \"#utility.yul\":16470:16473   */\n      dup2\n        /* \"#utility.yul\":16462:16473   */\n      swap1\n      pop\n        /* \"#utility.yul\":16493:16496   */\n      dup2\n        /* \"#utility.yul\":16490:16491   */\n      0x00\n        /* \"#utility.yul\":16483:16497   */\n      mstore\n        /* \"#utility.yul\":16527:16531   */\n      0x20\n        /* \"#utility.yul\":16524:16525   */\n      0x00\n        /* \"#utility.yul\":16514:16532   */\n      keccak256\n        /* \"#utility.yul\":16506:16532   */\n      swap1\n      pop\n        /* \"#utility.yul\":16398:16539   */\n      swap2\n      swap1\n      pop\n      jump\t// out\n        /* \"#utility.yul\":16545:16638   */\n    tag_147:\n        /* \"#utility.yul\":16582:16588   */\n      0x00\n        /* \"#utility.yul\":16629:16631   */\n      0x20\n        /* \"#utility.yul\":16624:16626   */\n      0x1f\n        /* \"#utility.yul\":16617:16622   */\n      dup4\n        /* \"#utility.yul\":16613:16627   */\n      add\n        /* \"#utility.yul\":16609:16632   */\n      div\n        /* \"#utility.yul\":16599:16632   */\n      swap1\n      pop\n        /* \"#utility.yul\":16545:16638   */\n      swap2\n      swap1\n      pop\n      jump\t// out\n        /* \"#utility.yul\":16644:16751   */\n    tag_148:\n        /* \"#utility.yul\":16688:16696   */\n      0x00\n        /* \"#utility.yul\":16738:16743   */\n      dup3\n        /* \"#utility.yul\":16732:16736   */\n      dup3\n        /* \"#utility.yul\":16728:16744   */\n      shl\n        /* \"#utility.yul\":16707:16744   */\n      swap1\n      pop\n        /* \"#utility.yul\":16644:16751   */\n      swap3\n      swap2\n      pop\n      pop\n      jump\t// out\n        /* \"#utility.yul\":16757:17150   */\n    tag_149:\n        /* \"#utility.yul\":16826:16832   */\n      0x00\n        /* \"#utility.yul\":16876:16877   */\n      0x08\n        /* \"#utility.yul\":16864:16874   */\n      dup4\n        /* \"#utility.yul\":16860:16878   */\n      mul\n        /* \"#utility.yul\":16899:16996   */\n      tag_314\n        /* \"#utility.yul\":16929:16995   */\n      0xffffffffffffffffffffffffffffffffffffffffffffffffffffffffffffffff\n        /* \"#utility.yul\":16918:16927   */\n      dup3\n        /* \"#utility.yul\":16899:16996   */\n      tag_148\n      jump\t// in\n    tag_314:\n        /* \"#utility.yul\":17017:17056   */\n      tag_315\n        /* \"#utility.yul\":17047:17055   */\n      dup7\n        /* \"#utility.yul\":17036:17045   */\n      dup4\n        /* \"#utility.yul\":17017:17056   */\n      tag_148\n      jump\t// in\n    tag_315:\n        /* \"#utility.yul\":17005:17056   */\n      swap6\n      pop\n        /* \"#utility.yul\":17089:17093   */\n      dup1\n        /* \"#utility.yul\":17085:17094   */\n      not\n        /* \"#utility.yul\":17078:17083   */\n      dup5\n        /* \"#utility.yul\":17074:17095   */\n      and\n        /* \"#utility.yul\":17065:17095   */\n      swap4\n      pop\n        /* \"#utility.yul\":17138:17142   */\n      dup1\n        /* \"#utility.yul\":17128:17136   */\n      dup7\n        /* \"#utility.yul\":17124:17143   */\n      and\n        /* \"#utility.yul\":17117:17122   */\n      dup5\n        /* \"#utility.yul\":17114:17144   */\n      or\n        /* \"#utility.yul\":17104:17144   */\n      swap3\n      pop\n        /* \"#utility.yul\":16833:17150   */\n      pop\n      pop\n        /* \"#utility.yul\":16757:17150   */\n      swap4\n      swap3\n      pop\n      pop\n      pop\n      jump\t// out\n        /* \"#utility.yul\":17156:17216   */\n    tag_150:\n        /* \"#utility.yul\":17184:17187   */\n      0x00\n        /* \"#utility.yul\":17205:17210   */\n      dup2\n        /* \"#utility.yul\":17198:17210   */\n      swap1\n      pop\n        /* \"#utility.yul\":17156:17216   */\n      swap2\n      swap1\n      pop\n      jump\t// out\n        /* \"#utility.yul\":17222:17364   */\n    tag_151:\n        /* \"#utility.yul\":17272:17281   */\n      0x00\n        /* \"#utility.yul\":17305:17358   */\n      tag_318\n        /* \"#utility.yul\":17323:17357   */\n      tag_319\n        /* \"#utility.yul\":17332:17356   */\n      tag_320\n        /* \"#utility.yul\":17350:17355   */\n      dup5\n        /* \"#utility.yul\":17332:17356   */\n      tag_109\n      jump\t// in\n    tag_320:\n        /* \"#utility.yul\":17323:17357   */\n      tag_150\n      jump\t// in\n    tag_319:\n        /* \"#utility.yul\":17305:17358   */\n      tag_109\n      jump\t// in\n    tag_318:\n        /* \"#utility.yul\":17292:17358   */\n      swap1\n      pop\n        /* \"#utility.yul\":17222:17364   */\n      swap2\n      swap1\n      pop\n      jump\t// out\n        /* \"#utility.yul\":17370:17445   */\n    tag_152:\n        /* \"#utility.yul\":17413:17416   */\n      0x00\n        /* \"#utility.yul\":17434:17439   */\n      dup2\n        /* \"#utility.yul\":17427:17439   */\n      swap1\n      pop\n        /* \"#utility.yul\":17370:17445   */\n      swap2\n      swap1\n      pop\n      jump\t// out\n        /* \"#utility.yul\":17451:17720   */\n    tag_153:\n        /* \"#utility.yul\":17561:17600   */\n      tag_323\n        /* \"#utility.yul\":17592:17599   */\n      dup4\n        /* \"#utility.yul\":17561:17600   */\n      tag_151\n      jump\t// in\n    tag_323:\n        /* \"#utility.yul\":17622:17713   */\n      tag_324\n        /* \"#utility.yul\":17671:17712   */\n      tag_325\n        /* \"#utility.yul\":17695:17711   */\n      dup3\n        /* \"#utility.yul\":17671:17712   */\n      tag_152\n      jump\t// in\n    tag_325:\n        /* \"#utility.yul\":17663:17669   */\n      dup5\n        /* \"#utility.yul\":17656:17660   */\n      dup5\n        /* \"#utility.yul\":17650:17661   */\n      sload\n        /* \"#utility.yul\":17622:17713   */\n      tag_149\n      jump\t// in\n    tag_324:\n        /* \"#utility.yul\":17616:17620   */\n      dup3\n        /* \"#utility.yul\":17609:17714   */\n      sstore\n        /* \"#utility.yul\":17527:17720   */\n      pop\n        /* \"#utility.yul\":17451:17720   */\n      pop\n      pop\n      pop\n      jump\t// out\n        /* \"#utility.yul\":17726:17799   */\n    tag_154:\n        /* \"#utility.yul\":17771:17774   */\n      0x00\n        /* \"#utility.yul\":17726:17799   */\n      swap1\n      jump\t// out\n        /* \"#utility.yul\":17805:17994   */\n    tag_155:\n        /* \"#utility.yul\":17882:17914   */\n      tag_328\n      tag_154\n      jump\t// in\n    tag_328:\n        /* \"#utility.yul\":17923:17988   */\n      tag_329\n        /* \"#utility.yul\":17981:17987   */\n      dup2\n        /* \"#utility.yul\":17973:17979   */\n      dup5\n        /* \"#utility.yul\":17967:17971   */\n      dup5\n        /* \"#utility.yul\":17923:17988   */\n      tag_153\n      jump\t// in\n    tag_329:\n        /* \"#utility.yul\":17858:17994   */\n      pop\n        /* \"#utility.yul\":17805:17994   */\n      pop\n      pop\n      jump\t// out\n        /* \"#utility.yul\":18000:18186   */\n    tag_156:\n        /* \"#utility.yul\":18060:18180   */\n    tag_331:\n        /* \"#utility.yul\":18077:18080   */\n      dup2\n        /* \"#utility.yul\":18070:18075   */\n      dup2\n        /* \"#utility.yul\":18067:18081   */\n      lt\n        /* \"#utility.yul\":18060:18180   */\n      iszero\n      tag_333\n      jumpi\n        /* \"#utility.yul\":18131:18170   */\n      tag_334\n        /* \"#utility.yul\":18168:18169   */\n      0x00\n        /* \"#utility.yul\":18161:18166   */\n      dup3\n        /* \"#utility.yul\":18131:18170   */\n      tag_155\n      jump\t// in\n    tag_334:\n        /* \"#utility.yul\":18104:18105   */\n      0x01\n        /* \"#utility.yul\":18097:18102   */\n      dup2\n        /* \"#utility.yul\":18093:18106   */\n      add\n        /* \"#utility.yul\":18084:18106   */\n      swap1\n      pop\n        /* \"#utility.yul\":18060:18180   */\n      jump(tag_331)\n    tag_333:\n        /* \"#utility.yul\":18000:18186   */\n      pop\n      pop\n      jump\t// out\n        /* \"#utility.yul\":18192:18735   */\n    tag_157:\n        /* \"#utility.yul\":18293:18295   */\n      0x1f\n        /* \"#utility.yul\":18288:18291   */\n      dup3\n        /* \"#utility.yul\":18285:18296   */\n      gt\n        /* \"#utility.yul\":18282:18728   */\n      iszero\n      tag_336\n      jumpi\n        /* \"#utility.yul\":18327:18365   */\n      tag_337\n        /* \"#utility.yul\":18359:18364   */\n      dup2\n        /* \"#utility.yul\":18327:18365   */\n      tag_146\n      jump\t// in\n    tag_337:\n        /* \"#utility.yul\":18411:18440   */\n      tag_338\n        /* \"#utility.yul\":18429:18439   */\n      dup5\n        /* \"#utility.yul\":18411:18440   */\n      tag_147\n      jump\t// in\n    tag_338:\n        /* \"#utility.yul\":18401:18409   */\n      dup2\n        /* \"#utility.yul\":18397:18441   */\n      add\n        /* \"#utility.yul\":18594:18596   */\n      0x20\n        /* \"#utility.yul\":18582:18592   */\n      dup6\n        /* \"#utility.yul\":18579:18597   */\n      lt\n        /* \"#utility.yul\":18576:18625   */\n      iszero\n      tag_339\n      jumpi\n        /* \"#utility.yul\":18615:18623   */\n      dup2\n        /* \"#utility.yul\":18600:18623   */\n      swap1\n      pop\n        /* \"#utility.yul\":18576:18625   */\n    tag_339:\n        /* \"#utility.yul\":18638:18718   */\n      tag_340\n        /* \"#utility.yul\":18694:18716   */\n      tag_341\n        /* \"#utility.yul\":18712:18715   */\n      dup6\n        /* \"#utility.yul\":18694:18716   */\n      tag_147\n      jump\t// in\n    tag_341:\n        /* \"#utility.yul\":18684:18692   */\n      dup4\n        /* \"#utility.yul\":18680:18717   */\n      add\n        /* \"#utility.yul\":18667:18678   */\n      dup3\n        /* \"#utility.yul\":18638:18718   */\n      tag_156\n      jump\t// in\n    tag_340:\n        /* \"#utility.yul\":18297:18728   */\n      pop\n      pop\n        /* \"#utility.yul\":18282:18728   */\n    tag_336:\n        /* \"#utility.yul\":18192:18735   */\n      pop\n      pop\n      pop\n      jump\t// out\n        /* \"#utility.yul\":18741:18858   */\n    tag_158:\n        /* \"#utility.yul\":18795:18803   */\n      0x00\n        /* \"#utility.yul\":18845:18850   */\n      dup3\n        /* \"#utility.yul\":18839:18843   */\n      dup3\n        /* \"#utility.yul\":18835:18851   */\n      shr\n        /* \"#utility.yul\":18814:18851   */\n      swap1\n      pop\n        /* \"#utility.yul\":18741:18858   */\n      swap3\n      swap2\n      pop\n      pop\n      jump\t// out\n        /* \"#utility.yul\":18864:19033   */\n    tag_159:\n        /* \"#utility.yul\":18908:18914   */\n      0x00\n        /* \"#utility.yul\":18941:18992   */\n      tag_344\n        /* \"#utility.yul\":18989:18990   */\n      0x00\n        /* \"#utility.yul\":18985:18991   */\n      not\n        /* \"#utility.yul\":18977:18982   */\n      dup5\n        /* \"#utility.yul\":18974:18975   */\n      0x08\n        /* \"#utility.yul\":18970:18983   */\n      mul\n        /* \"#utility.yul\":18941:18992   */\n      tag_158\n      jump\t// in\n    tag_344:\n        /* \"#utility.yul\":18937:18993   */\n      not\n        /* \"#utility.yul\":19022:19026   */\n      dup1\n        /* \"#utility.yul\":19016:19020   */\n      dup4\n        /* \"#utility.yul\":19012:19027   */\n      and\n        /* \"#utility.yul\":19002:19027   */\n      swap2\n      pop\n        /* \"#utility.yul\":18915:19033   */\n      pop\n        /* \"#utility.yul\":18864:19033   */\n      swap3\n      swap2\n      pop\n      pop\n      jump\t// out\n        /* \"#utility.yul\":19038:19333   */\n    tag_160:\n        /* \"#utility.yul\":19114:19118   */\n      0x00\n        /* \"#utility.yul\":19260:19289   */\n      tag_346\n        /* \"#utility.yul\":19285:19288   */\n      dup4\n        /* \"#utility.yul\":19279:19283   */\n      dup4\n        /* \"#utility.yul\":19260:19289   */\n      tag_159\n      jump\t// in\n    tag_346:\n        /* \"#utility.yul\":19252:19289   */\n      swap2\n      pop\n        /* \"#utility.yul\":19322:19325   */\n      dup3\n        /* \"#utility.yul\":19319:19320   */\n      0x02\n        /* \"#utility.yul\":19315:19326   */\n      mul\n        /* \"#utility.yul\":19309:19313   */\n      dup3\n        /* \"#utility.yul\":19306:19327   */\n      or\n        /* \"#utility.yul\":19298:19327   */\n      swap1\n      pop\n        /* \"#utility.yul\":19038:19333   */\n      swap3\n      swap2\n      pop\n      pop\n      jump\t// out\n        /* \"#utility.yul\":19338:20733   */\n    tag_85:\n        /* \"#utility.yul\":19455:19492   */\n      tag_348\n        /* \"#utility.yul\":19488:19491   */\n      dup3\n        /* \"#utility.yul\":19455:19492   */\n      tag_112\n      jump\t// in\n    tag_348:\n        /* \"#utility.yul\":19557:19575   */\n      0xffffffffffffffff\n        /* \"#utility.yul\":19549:19555   */\n      dup2\n        /* \"#utility.yul\":19546:19576   */\n      gt\n        /* \"#utility.yul\":19543:19599   */\n      iszero\n      tag_349\n      jumpi\n        /* \"#utility.yul\":19579:19597   */\n      tag_350\n      tag_120\n      jump\t// in\n    tag_350:\n        /* \"#utility.yul\":19543:19599   */\n    tag_349:\n        /* \"#utility.yul\":19623:19661   */\n      tag_351\n        /* \"#utility.yul\":19655:19659   */\n      dup3\n        /* \"#utility.yul\":19649:19660   */\n      sload\n        /* \"#utility.yul\":19623:19661   */\n      tag_68\n      jump\t// in\n    tag_351:\n        /* \"#utility.yul\":19708:19775   */\n      tag_352\n        /* \"#utility.yul\":19768:19774   */\n      dup3\n        /* \"#utility.yul\":19760:19766   */\n      dup3\n        /* \"#utility.yul\":19754:19758   */\n      dup6\n        /* \"#utility.yul\":19708:19775   */\n      tag_157\n      jump\t// in\n    tag_352:\n        /* \"#utility.yul\":19802:19803   */\n      0x00\n        /* \"#utility.yul\":19826:19830   */\n      0x20\n        /* \"#utility.yul\":19813:19830   */\n      swap1\n      pop\n        /* \"#utility.yul\":19858:19860   */\n      0x1f\n        /* \"#utility.yul\":19850:19856   */\n      dup4\n        /* \"#utility.yul\":19847:19861   */\n      gt\n        /* \"#utility.yul\":19875:19876   */\n      0x01\n        /* \"#utility.yul\":19870:20488   */\n      dup2\n      eq\n      tag_354\n      jumpi\n        /* \"#utility.yul\":20532:20533   */\n      0x00\n        /* \"#utility.yul\":20549:20555   */\n      dup5\n        /* \"#utility.yul\":20546:20623   */\n      iszero\n      tag_355\n      jumpi\n        /* \"#utility.yul\":20598:20607   */\n      dup3\n        /* \"#utility.yul\":20593:20596   */\n      dup8\n        /* \"#utility.yul\":20589:20608   */\n      add\n        /* \"#utility.yul\":20583:20609   */\n      mload\n        /* \"#utility.yul\":20574:20609   */\n      swap1\n      pop\n        /* \"#utility.yul\":20546:20623   */\n    tag_355:\n        /* \"#utility.yul\":20649:20716   */\n      tag_356\n        /* \"#utility.yul\":20709:20715   */\n      dup6\n        /* \"#utility.yul\":20702:20707   */\n      dup3\n        /* \"#utility.yul\":20649:20716   */\n      tag_160\n      jump\t// in\n    tag_356:\n        /* \"#utility.yul\":20643:20647   */\n      dup7\n        /* \"#utility.yul\":20636:20717   */\n      sstore\n        /* \"#utility.yul\":20505:20727   */\n      pop\n        /* \"#utility.yul\":19840:20727   */\n      jump(tag_353)\n        /* \"#utility.yul\":19870:20488   */\n    tag_354:\n        /* \"#utility.yul\":19922:19926   */\n      0x1f\n        /* \"#utility.yul\":19918:19927   */\n      not\n        /* \"#utility.yul\":19910:19916   */\n      dup5\n        /* \"#utility.yul\":19906:19928   */\n      and\n        /* \"#utility.yul\":19956:19993   */\n      tag_357\n        /* \"#utility.yul\":19988:19992   */\n      dup7\n        /* \"#utility.yul\":19956:19993   */\n      tag_146\n      jump\t// in\n    tag_357:\n        /* \"#utility.yul\":20015:20016   */\n      0x00\n        /* \"#utility.yul\":20029:20237   */\n    tag_358:\n        /* \"#utility.yul\":20043:20050   */\n      dup3\n        /* \"#utility.yul\":20040:20041   */\n      dup2\n        /* \"#utility.yul\":20037:20051   */\n      lt\n        /* \"#utility.yul\":20029:20237   */\n      iszero\n      tag_360\n      jumpi\n        /* \"#utility.yul\":20122:20131   */\n      dup5\n        /* \"#utility.yul\":20117:20120   */\n      dup10\n        /* \"#utility.yul\":20113:20132   */\n      add\n        /* \"#utility.yul\":20107:20133   */\n      mload\n        /* \"#utility.yul\":20099:20105   */\n      dup3\n        /* \"#utility.yul\":20092:20134   */\n      sstore\n        /* \"#utility.yul\":20173:20174   */\n      0x01\n        /* \"#utility.yul\":20165:20171   */\n      dup3\n        /* \"#utility.yul\":20161:20175   */\n      add\n        /* \"#utility.yul\":20151:20175   */\n      swap2\n      pop\n        /* \"#utility.yul\":20220:20222   */\n      0x20\n        /* \"#utility.yul\":20209:20218   */\n      dup6\n        /* \"#utility.yul\":20205:20223   */\n      add\n        /* \"#utility.yul\":20192:20223   */\n      swap5\n      pop\n        /* \"#utility.yul\":20066:20070   */\n      0x20\n        /* \"#utility.yul\":20063:20064   */\n      dup2\n        /* \"#utility.yul\":20059:20071   */\n      add\n        /* \"#utility.yul\":20054:20071   */\n      swap1\n      pop\n        /* \"#utility.yul\":20029:20237   */\n      jump(tag_358)\n    tag_360:\n        /* \"#utility.yul\":20265:20271   */\n      dup7\n        /* \"#utility.yul\":20256:20263   */\n      dup4\n        /* \"#utility.yul\":20253:20272   */\n      lt\n        /* \"#utility.yul\":20250:20429   */\n      iszero\n      tag_361\n      jumpi\n        /* \"#utility.yul\":20323:20332   */\n      dup5\n        /* \"#utility.yul\":20318:20321   */\n      dup10\n        /* \"#utility.yul\":20314:20333   */\n      add\n        /* \"#utility.yul\":20308:20334   */\n      mload\n        /* \"#utility.yul\":20366:20414   */\n      tag_362\n        /* \"#utility.yul\":20408:20412   */\n      0x1f\n        /* \"#utility.yul\":20400:20406   */\n      dup10\n        /* \"#utility.yul\":20396:20413   */\n      and\n        /* \"#utility.yul\":20385:20394   */\n      dup3\n        /* \"#utility.yul\":20366:20414   */\n      tag_159\n      jump\t// in\n    tag_362:\n        /* \"#utility.yul\":20358:20364   */\n      dup4\n        /* \"#utility.yul\":20351:20415   */\n      sstore\n        /* \"#utility.yul\":20273:20429   */\n      pop\n        /* \"#utility.yul\":20250:20429   */\n    tag_361:\n        /* \"#utility.yul\":20475:20476   */\n      0x01\n        /* \"#utility.yul\":20471:20472   */\n      0x02\n        /* \"#utility.yul\":20463:20469   */\n      dup9\n        /* \"#utility.yul\":20459:20473   */\n      mul\n        /* \"#utility.yul\":20455:20477   */\n      add\n        /* \"#utility.yul\":20449:20453   */\n      dup9\n        /* \"#utility.yul\":20442:20478   */\n      sstore\n        /* \"#utility.yul\":19877:20488   */\n      pop\n      pop\n      pop\n        /* \"#utility.yul\":19840:20727   */\n    tag_353:\n      pop\n        /* \"#utility.yul\":19430:20733   */\n      pop\n      pop\n      pop\n        /* \"#utility.yul\":19338:20733   */\n      pop\n      pop\n      jump\t// out\n        /* \"#utility.yul\":20739:21383   */\n    tag_87:\n        /* \"#utility.yul\":20936:20940   */\n      0x00\n        /* \"#utility.yul\":20974:20977   */\n      0x80\n        /* \"#utility.yul\":20963:20972   */\n      dup3\n        /* \"#utility.yul\":20959:20978   */\n      add\n        /* \"#utility.yul\":20951:20978   */\n      swap1\n      pop\n        /* \"#utility.yul\":20988:21059   */\n      tag_364\n        /* \"#utility.yul\":21056:21057   */\n      0x00\n        /* \"#utility.yul\":21045:21054   */\n      dup4\n        /* \"#utility.yul\":21041:21058   */\n      add\n        /* \"#utility.yul\":21032:21038   */\n      dup8\n        /* \"#utility.yul\":20988:21059   */\n      tag_117\n      jump\t// in\n    tag_364:\n        /* \"#utility.yul\":21106:21115   */\n      dup2\n        /* \"#utility.yul\":21100:21104   */\n      dup2\n        /* \"#utility.yul\":21096:21116   */\n      sub\n        /* \"#utility.yul\":21091:21093   */\n      0x20\n        /* \"#utility.yul\":21080:21089   */\n      dup4\n        /* \"#utility.yul\":21076:21094   */\n      add\n        /* \"#utility.yul\":21069:21117   */\n      mstore\n        /* \"#utility.yul\":21134:21212   */\n      tag_365\n        /* \"#utility.yul\":21207:21211   */\n      dup2\n        /* \"#utility.yul\":21198:21204   */\n      dup7\n        /* \"#utility.yul\":21134:21212   */\n      tag_116\n      jump\t// in\n    tag_365:\n        /* \"#utility.yul\":21126:21212   */\n      swap1\n      pop\n        /* \"#utility.yul\":21222:21294   */\n      tag_366\n        /* \"#utility.yul\":21290:21292   */\n      0x40\n        /* \"#utility.yul\":21279:21288   */\n      dup4\n        /* \"#utility.yul\":21275:21293   */\n      add\n        /* \"#utility.yul\":21266:21272   */\n      dup6\n        /* \"#utility.yul\":21222:21294   */\n      tag_117\n      jump\t// in\n    tag_366:\n        /* \"#utility.yul\":21304:21376   */\n      tag_367\n        /* \"#utility.yul\":21372:21374   */\n      0x60\n        /* \"#utility.yul\":21361:21370   */\n      dup4\n        /* \"#utility.yul\":21357:21375   */\n      add\n        /* \"#utility.yul\":21348:21354   */\n      dup5\n        /* \"#utility.yul\":21304:21376   */\n      tag_117\n      jump\t// in\n    tag_367:\n        /* \"#utility.yul\":20739:21383   */\n      swap6\n      swap5\n      pop\n      pop\n      pop\n      pop\n      pop\n      jump\t// out\n        /* \"#utility.yul\":21389:21622   */\n    tag_89:\n        /* \"#utility.yul\":21428:21431   */\n      0x00\n        /* \"#utility.yul\":21451:21475   */\n      tag_369\n        /* \"#utility.yul\":21469:21474   */\n      dup3\n        /* \"#utility.yul\":21451:21475   */\n      tag_109\n      jump\t// in\n    tag_369:\n        /* \"#utility.yul\":21442:21475   */\n      swap2\n      pop\n        /* \"#utility.yul\":21497:21563   */\n      0xffffffffffffffffffffffffffffffffffffffffffffffffffffffffffffffff\n        /* \"#utility.yul\":21490:21495   */\n      dup3\n        /* \"#utility.yul\":21487:21564   */\n      sub\n        /* \"#utility.yul\":21484:21587   */\n      tag_370\n      jumpi\n        /* \"#utility.yul\":21567:21585   */\n      tag_371\n      tag_136\n      jump\t// in\n    tag_371:\n        /* \"#utility.yul\":21484:21587   */\n    tag_370:\n        /* \"#utility.yul\":21614:21615   */\n      0x01\n        /* \"#utility.yul\":21607:21612   */\n      dup3\n        /* \"#utility.yul\":21603:21616   */\n      add\n        /* \"#utility.yul\":21596:21616   */\n      swap1\n      pop\n        /* \"#utility.yul\":21389:21622   */\n      swap2\n      swap1\n      pop\n      jump\t// out\n        /* \"#utility.yul\":21628:21802   */\n    tag_161:\n        /* \"#utility.yul\":21768:21794   */\n      0x53746f636b2063616e6e6f74206265206e656761746976650000000000000000\n        /* \"#utility.yul\":21764:21765   */\n      0x00\n        /* \"#utility.yul\":21756:21762   */\n      dup3\n        /* \"#utility.yul\":21752:21766   */\n      add\n        /* \"#utility.yul\":21745:21795   */\n      mstore\n        /* \"#utility.yul\":21628:21802   */\n      pop\n      jump\t// out\n        /* \"#utility.yul\":21808:22174   */\n    tag_162:\n        /* \"#utility.yul\":21950:21953   */\n      0x00\n        /* \"#utility.yul\":21971:22038   */\n      tag_374\n        /* \"#utility.yul\":22035:22037   */\n      0x18\n        /* \"#utility.yul\":22030:22033   */\n      dup4\n        /* \"#utility.yul\":21971:22038   */\n      tag_113\n      jump\t// in\n    tag_374:\n        /* \"#utility.yul\":21964:22038   */\n      swap2\n      pop\n        /* \"#utility.yul\":22047:22140   */\n      tag_375\n        /* \"#utility.yul\":22136:22139   */\n      dup3\n        /* \"#utility.yul\":22047:22140   */\n      tag_161\n      jump\t// in\n    tag_375:\n        /* \"#utility.yul\":22165:22167   */\n      0x20\n        /* \"#utility.yul\":22160:22163   */\n      dup3\n        /* \"#utility.yul\":22156:22168   */\n      add\n        /* \"#utility.yul\":22149:22168   */\n      swap1\n      pop\n        /* \"#utility.yul\":21808:22174   */\n      swap2\n      swap1\n      pop\n      jump\t// out\n        /* \"#utility.yul\":22180:22599   */\n    tag_103:\n        /* \"#utility.yul\":22346:22350   */\n      0x00\n        /* \"#utility.yul\":22384:22386   */\n      0x20\n        /* \"#utility.yul\":22373:22382   */\n      dup3\n        /* \"#utility.yul\":22369:22387   */\n      add\n        /* \"#utility.yul\":22361:22387   */\n      swap1\n      pop\n        /* \"#utility.yul\":22433:22442   */\n      dup2\n        /* \"#utility.yul\":22427:22431   */\n      dup2\n        /* \"#utility.yul\":22423:22443   */\n      sub\n        /* \"#utility.yul\":22419:22420   */\n      0x00\n        /* \"#utility.yul\":22408:22417   */\n      dup4\n        /* \"#utility.yul\":22404:22421   */\n      add\n        /* \"#utility.yul\":22397:22444   */\n      mstore\n        /* \"#utility.yul\":22461:22592   */\n      tag_377\n        /* \"#utility.yul\":22587:22591   */\n      dup2\n        /* \"#utility.yul\":22461:22592   */\n      tag_162\n      jump\t// in\n    tag_377:\n        /* \"#utility.yul\":22453:22592   */\n      swap1\n      pop\n        /* \"#utility.yul\":22180:22599   */\n      swap2\n      swap1\n      pop\n      jump\t// out\n\n    auxdata: 0xa264697066735822122068de643c388228e259dbeb424a73760e86fad01b73ac3b0315574b42dd4e7da364736f6c634300081a0033\n}\n",
				"bytecode": {
					"linkReferences": {},
					"object": "60806040525f6001553480156012575f80fd5b50335f806101000a81548173ffffffffffffffffffffffffffffffffffffffff021916908373ffffffffffffffffffffffffffffffffffffffff16021790555061143f8061005f5f395ff3fe60806040526004361061006f575f3560e01c80638da5cb5b1161004d5780638da5cb5b146100f5578063a307fcf91461011f578063b905ad781461015b578063f9263fc7146101855761006f565b80630eed433b14610073578063687440461461008f57806380d76e82146100cd575b5f80fd5b61008d600480360381019061008891906108d2565b6101ad565b005b34801561009a575f80fd5b506100b560048036038101906100b09190610910565b6103a3565b6040516100c4939291906109ba565b60405180910390f35b3480156100d8575f80fd5b506100f360048036038101906100ee9190610b22565b61044f565b005b348015610100575f80fd5b50610109610614565b6040516101169190610bcd565b60405180910390f35b34801561012a575f80fd5b5061014560048036038101906101409190610910565b610637565b6040516101529190610be6565b60405180910390f35b348015610166575f80fd5b5061016f610698565b60405161017c9190610be6565b60405180910390f35b348015610190575f80fd5b506101ab60048036038101906101a69190610bff565b61069e565b005b60015482106101f1576040517f08c379a00000000000000000000000000000000000000000000000000000000081526004016101e890610cc9565b60405180910390fd5b5f60025f8481526020019081526020015f2090505f81600201541161024b576040517f08c379a000000000000000000000000000000000000000000000000000000000815260040161024290610d31565b60405180910390fd5b8060010154341015610292576040517f08c379a000000000000000000000000000000000000000000000000000000000815260040161028990610d99565b60405180910390fd5b806002015481600101546102a69190610de4565b82146102e7576040517f08c379a00000000000000000000000000000000000000000000000000000000081526004016102de90610e6f565b60405180910390fd5b806002015f8154809291906102fb90610e8d565b91905055505f8054906101000a900473ffffffffffffffffffffffffffffffffffffffff1673ffffffffffffffffffffffffffffffffffffffff166108fc3490811502906040515f60405180830381858888f19350505050158015610362573d5f803e3d5ffd5b507f439c08b00222293c6073f3ee383214541a4a21aca7dbb0a45963f86fa8e589f783333460405161039693929190610eb4565b60405180910390a1505050565b6002602052805f5260405f205f91509050805f0180546103c290610f16565b80601f01602080910402602001604051908101604052809291908181526020018280546103ee90610f16565b80156104395780601f1061041057610100808354040283529160200191610439565b820191905f5260205f20905b81548152906001019060200180831161041c57829003601f168201915b5050505050908060010154908060020154905083565b5f8054906101000a900473ffffffffffffffffffffffffffffffffffffffff1673ffffffffffffffffffffffffffffffffffffffff163373ffffffffffffffffffffffffffffffffffffffff16146104dc576040517f08c379a00000000000000000000000000000000000000000000000000000000081526004016104d390610fb6565b60405180910390fd5b5f821161051e576040517f08c379a00000000000000000000000000000000000000000000000000000000081526004016105159061101e565b60405180910390fd5b5f8111610560576040517f08c379a000000000000000000000000000000000000000000000000000000000815260040161055790611086565b60405180910390fd5b60405180606001604052808481526020018381526020018281525060025f60015481526020019081526020015f205f820151815f0190816105a19190611241565b5060208201518160010155604082015181600201559050507ff58a0390aa55f63e4f15809a0f7a46eeec963676bb985c76cfd09f3a08e2287b6001548484846040516105f09493929190611310565b60405180910390a160015f81548092919061060a9061135a565b9190505550505050565b5f8054906101000a900473ffffffffffffffffffffffffffffffffffffffff1681565b5f600154821061067c576040517f08c379a000000000000000000000000000000000000000000000000000000000815260040161067390610cc9565b60405180910390fd5b60025f8381526020019081526020015f20600201549050919050565b60015481565b5f8054906101000a900473ffffffffffffffffffffffffffffffffffffffff1673ffffffffffffffffffffffffffffffffffffffff163373ffffffffffffffffffffffffffffffffffffffff161461072b576040517f08c379a000000000000000000000000000000000000000000000000000000000815260040161072290610fb6565b60405180910390fd5b600154841061076f576040517f08c379a000000000000000000000000000000000000000000000000000000000815260040161076690610cc9565b60405180910390fd5b5f82116107b1576040517f08c379a00000000000000000000000000000000000000000000000000000000081526004016107a89061101e565b60405180910390fd5b5f8110156107f4576040517f08c379a00000000000000000000000000000000000000000000000000000000081526004016107eb906113eb565b60405180910390fd5b60405180606001604052808481526020018381526020018281525060025f8681526020019081526020015f205f820151815f0190816108339190611241565b5060208201518160010155604082015181600201559050507f8e4cd869724720efe6ceac845a12b8677c7de3ab39cb15c41d9d782f72694db6848484846040516108809493929190611310565b60405180910390a150505050565b5f604051905090565b5f80fd5b5f80fd5b5f819050919050565b6108b18161089f565b81146108bb575f80fd5b50565b5f813590506108cc816108a8565b92915050565b5f80604083850312156108e8576108e7610897565b5b5f6108f5858286016108be565b9250506020610906858286016108be565b9150509250929050565b5f6020828403121561092557610924610897565b5b5f610932848285016108be565b91505092915050565b5f81519050919050565b5f82825260208201905092915050565b8281835e5f83830152505050565b5f601f19601f8301169050919050565b5f61097d8261093b565b6109878185610945565b9350610997818560208601610955565b6109a081610963565b840191505092915050565b6109b48161089f565b82525050565b5f6060820190508181035f8301526109d28186610973565b90506109e160208301856109ab565b6109ee60408301846109ab565b949350505050565b5f80fd5b5f80fd5b7f4e487b71000000000000000000000000000000000000000000000000000000005f52604160045260245ffd5b610a3482610963565b810181811067ffffffffffffffff82111715610a5357610a526109fe565b5b80604052505050565b5f610a6561088e565b9050610a718282610a2b565b919050565b5f67ffffffffffffffff821115610a9057610a8f6109fe565b5b610a9982610963565b9050602081019050919050565b828183375f83830152505050565b5f610ac6610ac184610a76565b610a5c565b905082815260208101848484011115610ae257610ae16109fa565b5b610aed848285610aa6565b509392505050565b5f82601f830112610b0957610b086109f6565b5b8135610b19848260208601610ab4565b91505092915050565b5f805f60608486031215610b3957610b38610897565b5b5f84013567ffffffffffffffff811115610b5657610b5561089b565b5b610b6286828701610af5565b9350506020610b73868287016108be565b9250506040610b84868287016108be565b9150509250925092565b5f73ffffffffffffffffffffffffffffffffffffffff82169050919050565b5f610bb782610b8e565b9050919050565b610bc781610bad565b82525050565b5f602082019050610be05f830184610bbe565b92915050565b5f602082019050610bf95f8301846109ab565b92915050565b5f805f8060808587031215610c1757610c16610897565b5b5f610c24878288016108be565b945050602085013567ffffffffffffffff811115610c4557610c4461089b565b5b610c5187828801610af5565b9350506040610c62878288016108be565b9250506060610c73878288016108be565b91505092959194509250565b7f426f6f6b20646f6573206e6f74206578697374000000000000000000000000005f82015250565b5f610cb3601383610945565b9150610cbe82610c7f565b602082019050919050565b5f6020820190508181035f830152610ce081610ca7565b9050919050565b7f426f6f6b206973206f7574206f662073746f636b0000000000000000000000005f82015250565b5f610d1b601483610945565b9150610d2682610ce7565b602082019050919050565b5f6020820190508181035f830152610d4881610d0f565b9050919050565b7f496e73756666696369656e74207061796d656e740000000000000000000000005f82015250565b5f610d83601483610945565b9150610d8e82610d4f565b602082019050919050565b5f6020820190508181035f830152610db081610d77565b9050919050565b7f4e487b71000000000000000000000000000000000000000000000000000000005f52601160045260245ffd5b5f610dee8261089f565b9150610df98361089f565b9250828202610e078161089f565b91508282048414831517610e1e57610e1d610db7565b5b5092915050565b7f496e636f7272656374207061796d656e7420616d6f756e742e000000000000005f82015250565b5f610e59601983610945565b9150610e6482610e25565b602082019050919050565b5f6020820190508181035f830152610e8681610e4d565b9050919050565b5f610e978261089f565b91505f8203610ea957610ea8610db7565b5b600182039050919050565b5f606082019050610ec75f8301866109ab565b610ed46020830185610bbe565b610ee160408301846109ab565b949350505050565b7f4e487b71000000000000000000000000000000000000000000000000000000005f52602260045260245ffd5b5f6002820490506001821680610f2d57607f821691505b602082108103610f4057610f3f610ee9565b5b50919050565b7f4f6e6c7920746865206f776e65722063616e20706572666f726d2074686973205f8201527f616374696f6e0000000000000000000000000000000000000000000000000000602082015250565b5f610fa0602683610945565b9150610fab82610f46565b604082019050919050565b5f6020820190508181035f830152610fcd81610f94565b9050919050565b7f5072696365206d7573742062652067726561746572207468616e207a65726f005f82015250565b5f611008601f83610945565b915061101382610fd4565b602082019050919050565b5f6020820190508181035f83015261103581610ffc565b9050919050565b7f53746f636b206d7573742062652067726561746572207468616e207a65726f005f82015250565b5f611070601f83610945565b915061107b8261103c565b602082019050919050565b5f6020820190508181035f83015261109d81611064565b9050919050565b5f819050815f5260205f209050919050565b5f6020601f8301049050919050565b5f82821b905092915050565b5f600883026111007fffffffffffffffffffffffffffffffffffffffffffffffffffffffffffffffff826110c5565b61110a86836110c5565b95508019841693508086168417925050509392505050565b5f819050919050565b5f61114561114061113b8461089f565b611122565b61089f565b9050919050565b5f819050919050565b61115e8361112b565b61117261116a8261114c565b8484546110d1565b825550505050565b5f90565b61118661117a565b611191818484611155565b505050565b5b818110156111b4576111a95f8261117e565b600181019050611197565b5050565b601f8211156111f9576111ca816110a4565b6111d3846110b6565b810160208510156111e2578190505b6111f66111ee856110b6565b830182611196565b50505b505050565b5f82821c905092915050565b5f6112195f19846008026111fe565b1980831691505092915050565b5f611231838361120a565b9150826002028217905092915050565b61124a8261093b565b67ffffffffffffffff811115611263576112626109fe565b5b61126d8254610f16565b6112788282856111b8565b5f60209050601f8311600181146112a9575f8415611297578287015190505b6112a18582611226565b865550611308565b601f1984166112b7866110a4565b5f5b828110156112de578489015182556001820191506020850194506020810190506112b9565b868310156112fb57848901516112f7601f89168261120a565b8355505b6001600288020188555050505b505050505050565b5f6080820190506113235f8301876109ab565b81810360208301526113358186610973565b905061134460408301856109ab565b61135160608301846109ab565b95945050505050565b5f6113648261089f565b91507fffffffffffffffffffffffffffffffffffffffffffffffffffffffffffffffff820361139657611395610db7565b5b600182019050919050565b7f53746f636b2063616e6e6f74206265206e6567617469766500000000000000005f82015250565b5f6113d5601883610945565b91506113e0826113a1565b602082019050919050565b5f6020820190508181035f830152611402816113c9565b905091905056fea264697066735822122068de643c388228e259dbeb424a73760e86fad01b73ac3b0315574b42dd4e7da364736f6c634300081a0033",
					"opcodes": "PUSH1 0x80 PUSH1 0x40 MSTORE PUSH0 PUSH1 0x1 SSTORE CALLVALUE DUP1 ISZERO PUSH1 0x12 JUMPI PUSH0 DUP1 REVERT JUMPDEST POP CALLER PUSH0 DUP1 PUSH2 0x100 EXP DUP2 SLOAD DUP2 PUSH20 0xFFFFFFFFFFFFFFFFFFFFFFFFFFFFFFFFFFFFFFFF MUL NOT AND SWAP1 DUP4 PUSH20 0xFFFFFFFFFFFFFFFFFFFFFFFFFFFFFFFFFFFFFFFF AND MUL OR SWAP1 SSTORE POP PUSH2 0x143F DUP1 PUSH2 0x5F PUSH0 CODECOPY PUSH0 RETURN INVALID PUSH1 0x80 PUSH1 0x40 MSTORE PUSH1 0x4 CALLDATASIZE LT PUSH2 0x6F JUMPI PUSH0 CALLDATALOAD PUSH1 0xE0 SHR DUP1 PUSH4 0x8DA5CB5B GT PUSH2 0x4D JUMPI DUP1 PUSH4 0x8DA5CB5B EQ PUSH2 0xF5 JUMPI DUP1 PUSH4 0xA307FCF9 EQ PUSH2 0x11F JUMPI DUP1 PUSH4 0xB905AD78 EQ PUSH2 0x15B JUMPI DUP1 PUSH4 0xF9263FC7 EQ PUSH2 0x185 JUMPI PUSH2 0x6F JUMP JUMPDEST DUP1 PUSH4 0xEED433B EQ PUSH2 0x73 JUMPI DUP1 PUSH4 0x68744046 EQ PUSH2 0x8F JUMPI DUP1 PUSH4 0x80D76E82 EQ PUSH2 0xCD JUMPI JUMPDEST PUSH0 DUP1 REVERT JUMPDEST PUSH2 0x8D PUSH1 0x4 DUP1 CALLDATASIZE SUB DUP2 ADD SWAP1 PUSH2 0x88 SWAP2 SWAP1 PUSH2 0x8D2 JUMP JUMPDEST PUSH2 0x1AD JUMP JUMPDEST STOP JUMPDEST CALLVALUE DUP1 ISZERO PUSH2 0x9A JUMPI PUSH0 DUP1 REVERT JUMPDEST POP PUSH2 0xB5 PUSH1 0x4 DUP1 CALLDATASIZE SUB DUP2 ADD SWAP1 PUSH2 0xB0 SWAP2 SWAP1 PUSH2 0x910 JUMP JUMPDEST PUSH2 0x3A3 JUMP JUMPDEST PUSH1 0x40 MLOAD PUSH2 0xC4 SWAP4 SWAP3 SWAP2 SWAP1 PUSH2 0x9BA JUMP JUMPDEST PUSH1 0x40 MLOAD DUP1 SWAP2 SUB SWAP1 RETURN JUMPDEST CALLVALUE DUP1 ISZERO PUSH2 0xD8 JUMPI PUSH0 DUP1 REVERT JUMPDEST POP PUSH2 0xF3 PUSH1 0x4 DUP1 CALLDATASIZE SUB DUP2 ADD SWAP1 PUSH2 0xEE SWAP2 SWAP1 PUSH2 0xB22 JUMP JUMPDEST PUSH2 0x44F JUMP JUMPDEST STOP JUMPDEST CALLVALUE DUP1 ISZERO PUSH2 0x100 JUMPI PUSH0 DUP1 REVERT JUMPDEST POP PUSH2 0x109 PUSH2 0x614 JUMP JUMPDEST PUSH1 0x40 MLOAD PUSH2 0x116 SWAP2 SWAP1 PUSH2 0xBCD JUMP JUMPDEST PUSH1 0x40 MLOAD DUP1 SWAP2 SUB SWAP1 RETURN JUMPDEST CALLVALUE DUP1 ISZERO PUSH2 0x12A JUMPI PUSH0 DUP1 REVERT JUMPDEST POP PUSH2 0x145 PUSH1 0x4 DUP1 CALLDATASIZE SUB DUP2 ADD SWAP1 PUSH2 0x140 SWAP2 SWAP1 PUSH2 0x910 JUMP JUMPDEST PUSH2 0x637 JUMP JUMPDEST PUSH1 0x40 MLOAD PUSH2 0x152 SWAP2 SWAP1 PUSH2 0xBE6 JUMP JUMPDEST PUSH1 0x40 MLOAD DUP1 SWAP2 SUB SWAP1 RETURN JUMPDEST CALLVALUE DUP1 ISZERO PUSH2 0x166 JUMPI PUSH0 DUP1 REVERT JUMPDEST POP PUSH2 0x16F PUSH2 0x698 JUMP JUMPDEST PUSH1 0x40 MLOAD PUSH2 0x17C SWAP2 SWAP1 PUSH2 0xBE6 JUMP JUMPDEST PUSH1 0x40 MLOAD DUP1 SWAP2 SUB SWAP1 RETURN JUMPDEST CALLVALUE DUP1 ISZERO PUSH2 0x190 JUMPI PUSH0 DUP1 REVERT JUMPDEST POP PUSH2 0x1AB PUSH1 0x4 DUP1 CALLDATASIZE SUB DUP2 ADD SWAP1 PUSH2 0x1A6 SWAP2 SWAP1 PUSH2 0xBFF JUMP JUMPDEST PUSH2 0x69E JUMP JUMPDEST STOP JUMPDEST PUSH1 0x1 SLOAD DUP3 LT PUSH2 0x1F1 JUMPI PUSH1 0x40 MLOAD PUSH32 0x8C379A000000000000000000000000000000000000000000000000000000000 DUP2 MSTORE PUSH1 0x4 ADD PUSH2 0x1E8 SWAP1 PUSH2 0xCC9 JUMP JUMPDEST PUSH1 0x40 MLOAD DUP1 SWAP2 SUB SWAP1 REVERT JUMPDEST PUSH0 PUSH1 0x2 PUSH0 DUP5 DUP2 MSTORE PUSH1 0x20 ADD SWAP1 DUP2 MSTORE PUSH1 0x20 ADD PUSH0 KECCAK256 SWAP1 POP PUSH0 DUP2 PUSH1 0x2 ADD SLOAD GT PUSH2 0x24B JUMPI PUSH1 0x40 MLOAD PUSH32 0x8C379A000000000000000000000000000000000000000000000000000000000 DUP2 MSTORE PUSH1 0x4 ADD PUSH2 0x242 SWAP1 PUSH2 0xD31 JUMP JUMPDEST PUSH1 0x40 MLOAD DUP1 SWAP2 SUB SWAP1 REVERT JUMPDEST DUP1 PUSH1 0x1 ADD SLOAD CALLVALUE LT ISZERO PUSH2 0x292 JUMPI PUSH1 0x40 MLOAD PUSH32 0x8C379A000000000000000000000000000000000000000000000000000000000 DUP2 MSTORE PUSH1 0x4 ADD PUSH2 0x289 SWAP1 PUSH2 0xD99 JUMP JUMPDEST PUSH1 0x40 MLOAD DUP1 SWAP2 SUB SWAP1 REVERT JUMPDEST DUP1 PUSH1 0x2 ADD SLOAD DUP2 PUSH1 0x1 ADD SLOAD PUSH2 0x2A6 SWAP2 SWAP1 PUSH2 0xDE4 JUMP JUMPDEST DUP3 EQ PUSH2 0x2E7 JUMPI PUSH1 0x40 MLOAD PUSH32 0x8C379A000000000000000000000000000000000000000000000000000000000 DUP2 MSTORE PUSH1 0x4 ADD PUSH2 0x2DE SWAP1 PUSH2 0xE6F JUMP JUMPDEST PUSH1 0x40 MLOAD DUP1 SWAP2 SUB SWAP1 REVERT JUMPDEST DUP1 PUSH1 0x2 ADD PUSH0 DUP2 SLOAD DUP1 SWAP3 SWAP2 SWAP1 PUSH2 0x2FB SWAP1 PUSH2 0xE8D JUMP JUMPDEST SWAP2 SWAP1 POP SSTORE POP PUSH0 DUP1 SLOAD SWAP1 PUSH2 0x100 EXP SWAP1 DIV PUSH20 0xFFFFFFFFFFFFFFFFFFFFFFFFFFFFFFFFFFFFFFFF AND PUSH20 0xFFFFFFFFFFFFFFFFFFFFFFFFFFFFFFFFFFFFFFFF AND PUSH2 0x8FC CALLVALUE SWAP1 DUP2 ISZERO MUL SWAP1 PUSH1 0x40 MLOAD PUSH0 PUSH1 0x40 MLOAD DUP1 DUP4 SUB DUP2 DUP6 DUP9 DUP9 CALL SWAP4 POP POP POP POP ISZERO DUP1 ISZERO PUSH2 0x362 JUMPI RETURNDATASIZE PUSH0 DUP1 RETURNDATACOPY RETURNDATASIZE PUSH0 REVERT JUMPDEST POP PUSH32 0x439C08B00222293C6073F3EE383214541A4A21ACA7DBB0A45963F86FA8E589F7 DUP4 CALLER CALLVALUE PUSH1 0x40 MLOAD PUSH2 0x396 SWAP4 SWAP3 SWAP2 SWAP1 PUSH2 0xEB4 JUMP JUMPDEST PUSH1 0x40 MLOAD DUP1 SWAP2 SUB SWAP1 LOG1 POP POP POP JUMP JUMPDEST PUSH1 0x2 PUSH1 0x20 MSTORE DUP1 PUSH0 MSTORE PUSH1 0x40 PUSH0 KECCAK256 PUSH0 SWAP2 POP SWAP1 POP DUP1 PUSH0 ADD DUP1 SLOAD PUSH2 0x3C2 SWAP1 PUSH2 0xF16 JUMP JUMPDEST DUP1 PUSH1 0x1F ADD PUSH1 0x20 DUP1 SWAP2 DIV MUL PUSH1 0x20 ADD PUSH1 0x40 MLOAD SWAP1 DUP2 ADD PUSH1 0x40 MSTORE DUP1 SWAP3 SWAP2 SWAP1 DUP2 DUP2 MSTORE PUSH1 0x20 ADD DUP3 DUP1 SLOAD PUSH2 0x3EE SWAP1 PUSH2 0xF16 JUMP JUMPDEST DUP1 ISZERO PUSH2 0x439 JUMPI DUP1 PUSH1 0x1F LT PUSH2 0x410 JUMPI PUSH2 0x100 DUP1 DUP4 SLOAD DIV MUL DUP4 MSTORE SWAP2 PUSH1 0x20 ADD SWAP2 PUSH2 0x439 JUMP JUMPDEST DUP3 ADD SWAP2 SWAP1 PUSH0 MSTORE PUSH1 0x20 PUSH0 KECCAK256 SWAP1 JUMPDEST DUP2 SLOAD DUP2 MSTORE SWAP1 PUSH1 0x1 ADD SWAP1 PUSH1 0x20 ADD DUP1 DUP4 GT PUSH2 0x41C JUMPI DUP3 SWAP1 SUB PUSH1 0x1F AND DUP3 ADD SWAP2 JUMPDEST POP POP POP POP POP SWAP1 DUP1 PUSH1 0x1 ADD SLOAD SWAP1 DUP1 PUSH1 0x2 ADD SLOAD SWAP1 POP DUP4 JUMP JUMPDEST PUSH0 DUP1 SLOAD SWAP1 PUSH2 0x100 EXP SWAP1 DIV PUSH20 0xFFFFFFFFFFFFFFFFFFFFFFFFFFFFFFFFFFFFFFFF AND PUSH20 0xFFFFFFFFFFFFFFFFFFFFFFFFFFFFFFFFFFFFFFFF AND CALLER PUSH20 0xFFFFFFFFFFFFFFFFFFFFFFFFFFFFFFFFFFFFFFFF AND EQ PUSH2 0x4DC JUMPI PUSH1 0x40 MLOAD PUSH32 0x8C379A000000000000000000000000000000000000000000000000000000000 DUP2 MSTORE PUSH1 0x4 ADD PUSH2 0x4D3 SWAP1 PUSH2 0xFB6 JUMP JUMPDEST PUSH1 0x40 MLOAD DUP1 SWAP2 SUB SWAP1 REVERT JUMPDEST PUSH0 DUP3 GT PUSH2 0x51E JUMPI PUSH1 0x40 MLOAD PUSH32 0x8C379A000000000000000000000000000000000000000000000000000000000 DUP2 MSTORE PUSH1 0x4 ADD PUSH2 0x515 SWAP1 PUSH2 0x101E JUMP JUMPDEST PUSH1 0x40 MLOAD DUP1 SWAP2 SUB SWAP1 REVERT JUMPDEST PUSH0 DUP2 GT PUSH2 0x560 JUMPI PUSH1 0x40 MLOAD PUSH32 0x8C379A000000000000000000000000000000000000000000000000000000000 DUP2 MSTORE PUSH1 0x4 ADD PUSH2 0x557 SWAP1 PUSH2 0x1086 JUMP JUMPDEST PUSH1 0x40 MLOAD DUP1 SWAP2 SUB SWAP1 REVERT JUMPDEST PUSH1 0x40 MLOAD DUP1 PUSH1 0x60 ADD PUSH1 0x40 MSTORE DUP1 DUP5 DUP2 MSTORE PUSH1 0x20 ADD DUP4 DUP2 MSTORE PUSH1 0x20 ADD DUP3 DUP2 MSTORE POP PUSH1 0x2 PUSH0 PUSH1 0x1 SLOAD DUP2 MSTORE PUSH1 0x20 ADD SWAP1 DUP2 MSTORE PUSH1 0x20 ADD PUSH0 KECCAK256 PUSH0 DUP3 ADD MLOAD DUP2 PUSH0 ADD SWAP1 DUP2 PUSH2 0x5A1 SWAP2 SWAP1 PUSH2 0x1241 JUMP JUMPDEST POP PUSH1 0x20 DUP3 ADD MLOAD DUP2 PUSH1 0x1 ADD SSTORE PUSH1 0x40 DUP3 ADD MLOAD DUP2 PUSH1 0x2 ADD SSTORE SWAP1 POP POP PUSH32 0xF58A0390AA55F63E4F15809A0F7A46EEEC963676BB985C76CFD09F3A08E2287B PUSH1 0x1 SLOAD DUP5 DUP5 DUP5 PUSH1 0x40 MLOAD PUSH2 0x5F0 SWAP5 SWAP4 SWAP3 SWAP2 SWAP1 PUSH2 0x1310 JUMP JUMPDEST PUSH1 0x40 MLOAD DUP1 SWAP2 SUB SWAP1 LOG1 PUSH1 0x1 PUSH0 DUP2 SLOAD DUP1 SWAP3 SWAP2 SWAP1 PUSH2 0x60A SWAP1 PUSH2 0x135A JUMP JUMPDEST SWAP2 SWAP1 POP SSTORE POP POP POP POP JUMP JUMPDEST PUSH0 DUP1 SLOAD SWAP1 PUSH2 0x100 EXP SWAP1 DIV PUSH20 0xFFFFFFFFFFFFFFFFFFFFFFFFFFFFFFFFFFFFFFFF AND DUP2 JUMP JUMPDEST PUSH0 PUSH1 0x1 SLOAD DUP3 LT PUSH2 0x67C JUMPI PUSH1 0x40 MLOAD PUSH32 0x8C379A000000000000000000000000000000000000000000000000000000000 DUP2 MSTORE PUSH1 0x4 ADD PUSH2 0x673 SWAP1 PUSH2 0xCC9 JUMP JUMPDEST PUSH1 0x40 MLOAD DUP1 SWAP2 SUB SWAP1 REVERT JUMPDEST PUSH1 0x2 PUSH0 DUP4 DUP2 MSTORE PUSH1 0x20 ADD SWAP1 DUP2 MSTORE PUSH1 0x20 ADD PUSH0 KECCAK256 PUSH1 0x2 ADD SLOAD SWAP1 POP SWAP2 SWAP1 POP JUMP JUMPDEST PUSH1 0x1 SLOAD DUP2 JUMP JUMPDEST PUSH0 DUP1 SLOAD SWAP1 PUSH2 0x100 EXP SWAP1 DIV PUSH20 0xFFFFFFFFFFFFFFFFFFFFFFFFFFFFFFFFFFFFFFFF AND PUSH20 0xFFFFFFFFFFFFFFFFFFFFFFFFFFFFFFFFFFFFFFFF AND CALLER PUSH20 0xFFFFFFFFFFFFFFFFFFFFFFFFFFFFFFFFFFFFFFFF AND EQ PUSH2 0x72B JUMPI PUSH1 0x40 MLOAD PUSH32 0x8C379A000000000000000000000000000000000000000000000000000000000 DUP2 MSTORE PUSH1 0x4 ADD PUSH2 0x722 SWAP1 PUSH2 0xFB6 JUMP JUMPDEST PUSH1 0x40 MLOAD DUP1 SWAP2 SUB SWAP1 REVERT JUMPDEST PUSH1 0x1 SLOAD DUP5 LT PUSH2 0x76F JUMPI PUSH1 0x40 MLOAD PUSH32 0x8C379A000000000000000000000000000000000000000000000000000000000 DUP2 MSTORE PUSH1 0x4 ADD PUSH2 0x766 SWAP1 PUSH2 0xCC9 JUMP JUMPDEST PUSH1 0x40 MLOAD DUP1 SWAP2 SUB SWAP1 REVERT JUMPDEST PUSH0 DUP3 GT PUSH2 0x7B1 JUMPI PUSH1 0x40 MLOAD PUSH32 0x8C379A000000000000000000000000000000000000000000000000000000000 DUP2 MSTORE PUSH1 0x4 ADD PUSH2 0x7A8 SWAP1 PUSH2 0x101E JUMP JUMPDEST PUSH1 0x40 MLOAD DUP1 SWAP2 SUB SWAP1 REVERT JUMPDEST PUSH0 DUP2 LT ISZERO PUSH2 0x7F4 JUMPI PUSH1 0x40 MLOAD PUSH32 0x8C379A000000000000000000000000000000000000000000000000000000000 DUP2 MSTORE PUSH1 0x4 ADD PUSH2 0x7EB SWAP1 PUSH2 0x13EB JUMP JUMPDEST PUSH1 0x40 MLOAD DUP1 SWAP2 SUB SWAP1 REVERT JUMPDEST PUSH1 0x40 MLOAD DUP1 PUSH1 0x60 ADD PUSH1 0x40 MSTORE DUP1 DUP5 DUP2 MSTORE PUSH1 0x20 ADD DUP4 DUP2 MSTORE PUSH1 0x20 ADD DUP3 DUP2 MSTORE POP PUSH1 0x2 PUSH0 DUP7 DUP2 MSTORE PUSH1 0x20 ADD SWAP1 DUP2 MSTORE PUSH1 0x20 ADD PUSH0 KECCAK256 PUSH0 DUP3 ADD MLOAD DUP2 PUSH0 ADD SWAP1 DUP2 PUSH2 0x833 SWAP2 SWAP1 PUSH2 0x1241 JUMP JUMPDEST POP PUSH1 0x20 DUP3 ADD MLOAD DUP2 PUSH1 0x1 ADD SSTORE PUSH1 0x40 DUP3 ADD MLOAD DUP2 PUSH1 0x2 ADD SSTORE SWAP1 POP POP PUSH32 0x8E4CD869724720EFE6CEAC845A12B8677C7DE3AB39CB15C41D9D782F72694DB6 DUP5 DUP5 DUP5 DUP5 PUSH1 0x40 MLOAD PUSH2 0x880 SWAP5 SWAP4 SWAP3 SWAP2 SWAP1 PUSH2 0x1310 JUMP JUMPDEST PUSH1 0x40 MLOAD DUP1 SWAP2 SUB SWAP1 LOG1 POP POP POP POP JUMP JUMPDEST PUSH0 PUSH1 0x40 MLOAD SWAP1 POP SWAP1 JUMP JUMPDEST PUSH0 DUP1 REVERT JUMPDEST PUSH0 DUP1 REVERT JUMPDEST PUSH0 DUP2 SWAP1 POP SWAP2 SWAP1 POP JUMP JUMPDEST PUSH2 0x8B1 DUP2 PUSH2 0x89F JUMP JUMPDEST DUP2 EQ PUSH2 0x8BB JUMPI PUSH0 DUP1 REVERT JUMPDEST POP JUMP JUMPDEST PUSH0 DUP2 CALLDATALOAD SWAP1 POP PUSH2 0x8CC DUP2 PUSH2 0x8A8 JUMP JUMPDEST SWAP3 SWAP2 POP POP JUMP JUMPDEST PUSH0 DUP1 PUSH1 0x40 DUP4 DUP6 SUB SLT ISZERO PUSH2 0x8E8 JUMPI PUSH2 0x8E7 PUSH2 0x897 JUMP JUMPDEST JUMPDEST PUSH0 PUSH2 0x8F5 DUP6 DUP3 DUP7 ADD PUSH2 0x8BE JUMP JUMPDEST SWAP3 POP POP PUSH1 0x20 PUSH2 0x906 DUP6 DUP3 DUP7 ADD PUSH2 0x8BE JUMP JUMPDEST SWAP2 POP POP SWAP3 POP SWAP3 SWAP1 POP JUMP JUMPDEST PUSH0 PUSH1 0x20 DUP3 DUP5 SUB SLT ISZERO PUSH2 0x925 JUMPI PUSH2 0x924 PUSH2 0x897 JUMP JUMPDEST JUMPDEST PUSH0 PUSH2 0x932 DUP5 DUP3 DUP6 ADD PUSH2 0x8BE JUMP JUMPDEST SWAP2 POP POP SWAP3 SWAP2 POP POP JUMP JUMPDEST PUSH0 DUP2 MLOAD SWAP1 POP SWAP2 SWAP1 POP JUMP JUMPDEST PUSH0 DUP3 DUP3 MSTORE PUSH1 0x20 DUP3 ADD SWAP1 POP SWAP3 SWAP2 POP POP JUMP JUMPDEST DUP3 DUP2 DUP4 MCOPY PUSH0 DUP4 DUP4 ADD MSTORE POP POP POP JUMP JUMPDEST PUSH0 PUSH1 0x1F NOT PUSH1 0x1F DUP4 ADD AND SWAP1 POP SWAP2 SWAP1 POP JUMP JUMPDEST PUSH0 PUSH2 0x97D DUP3 PUSH2 0x93B JUMP JUMPDEST PUSH2 0x987 DUP2 DUP6 PUSH2 0x945 JUMP JUMPDEST SWAP4 POP PUSH2 0x997 DUP2 DUP6 PUSH1 0x20 DUP7 ADD PUSH2 0x955 JUMP JUMPDEST PUSH2 0x9A0 DUP2 PUSH2 0x963 JUMP JUMPDEST DUP5 ADD SWAP2 POP POP SWAP3 SWAP2 POP POP JUMP JUMPDEST PUSH2 0x9B4 DUP2 PUSH2 0x89F JUMP JUMPDEST DUP3 MSTORE POP POP JUMP JUMPDEST PUSH0 PUSH1 0x60 DUP3 ADD SWAP1 POP DUP2 DUP2 SUB PUSH0 DUP4 ADD MSTORE PUSH2 0x9D2 DUP2 DUP7 PUSH2 0x973 JUMP JUMPDEST SWAP1 POP PUSH2 0x9E1 PUSH1 0x20 DUP4 ADD DUP6 PUSH2 0x9AB JUMP JUMPDEST PUSH2 0x9EE PUSH1 0x40 DUP4 ADD DUP5 PUSH2 0x9AB JUMP JUMPDEST SWAP5 SWAP4 POP POP POP POP JUMP JUMPDEST PUSH0 DUP1 REVERT JUMPDEST PUSH0 DUP1 REVERT JUMPDEST PUSH32 0x4E487B7100000000000000000000000000000000000000000000000000000000 PUSH0 MSTORE PUSH1 0x41 PUSH1 0x4 MSTORE PUSH1 0x24 PUSH0 REVERT JUMPDEST PUSH2 0xA34 DUP3 PUSH2 0x963 JUMP JUMPDEST DUP2 ADD DUP2 DUP2 LT PUSH8 0xFFFFFFFFFFFFFFFF DUP3 GT OR ISZERO PUSH2 0xA53 JUMPI PUSH2 0xA52 PUSH2 0x9FE JUMP JUMPDEST JUMPDEST DUP1 PUSH1 0x40 MSTORE POP POP POP JUMP JUMPDEST PUSH0 PUSH2 0xA65 PUSH2 0x88E JUMP JUMPDEST SWAP1 POP PUSH2 0xA71 DUP3 DUP3 PUSH2 0xA2B JUMP JUMPDEST SWAP2 SWAP1 POP JUMP JUMPDEST PUSH0 PUSH8 0xFFFFFFFFFFFFFFFF DUP3 GT ISZERO PUSH2 0xA90 JUMPI PUSH2 0xA8F PUSH2 0x9FE JUMP JUMPDEST JUMPDEST PUSH2 0xA99 DUP3 PUSH2 0x963 JUMP JUMPDEST SWAP1 POP PUSH1 0x20 DUP2 ADD SWAP1 POP SWAP2 SWAP1 POP JUMP JUMPDEST DUP3 DUP2 DUP4 CALLDATACOPY PUSH0 DUP4 DUP4 ADD MSTORE POP POP POP JUMP JUMPDEST PUSH0 PUSH2 0xAC6 PUSH2 0xAC1 DUP5 PUSH2 0xA76 JUMP JUMPDEST PUSH2 0xA5C JUMP JUMPDEST SWAP1 POP DUP3 DUP2 MSTORE PUSH1 0x20 DUP2 ADD DUP5 DUP5 DUP5 ADD GT ISZERO PUSH2 0xAE2 JUMPI PUSH2 0xAE1 PUSH2 0x9FA JUMP JUMPDEST JUMPDEST PUSH2 0xAED DUP5 DUP3 DUP6 PUSH2 0xAA6 JUMP JUMPDEST POP SWAP4 SWAP3 POP POP POP JUMP JUMPDEST PUSH0 DUP3 PUSH1 0x1F DUP4 ADD SLT PUSH2 0xB09 JUMPI PUSH2 0xB08 PUSH2 0x9F6 JUMP JUMPDEST JUMPDEST DUP2 CALLDATALOAD PUSH2 0xB19 DUP5 DUP3 PUSH1 0x20 DUP7 ADD PUSH2 0xAB4 JUMP JUMPDEST SWAP2 POP POP SWAP3 SWAP2 POP POP JUMP JUMPDEST PUSH0 DUP1 PUSH0 PUSH1 0x60 DUP5 DUP7 SUB SLT ISZERO PUSH2 0xB39 JUMPI PUSH2 0xB38 PUSH2 0x897 JUMP JUMPDEST JUMPDEST PUSH0 DUP5 ADD CALLDATALOAD PUSH8 0xFFFFFFFFFFFFFFFF DUP2 GT ISZERO PUSH2 0xB56 JUMPI PUSH2 0xB55 PUSH2 0x89B JUMP JUMPDEST JUMPDEST PUSH2 0xB62 DUP7 DUP3 DUP8 ADD PUSH2 0xAF5 JUMP JUMPDEST SWAP4 POP POP PUSH1 0x20 PUSH2 0xB73 DUP7 DUP3 DUP8 ADD PUSH2 0x8BE JUMP JUMPDEST SWAP3 POP POP PUSH1 0x40 PUSH2 0xB84 DUP7 DUP3 DUP8 ADD PUSH2 0x8BE JUMP JUMPDEST SWAP2 POP POP SWAP3 POP SWAP3 POP SWAP3 JUMP JUMPDEST PUSH0 PUSH20 0xFFFFFFFFFFFFFFFFFFFFFFFFFFFFFFFFFFFFFFFF DUP3 AND SWAP1 POP SWAP2 SWAP1 POP JUMP JUMPDEST PUSH0 PUSH2 0xBB7 DUP3 PUSH2 0xB8E JUMP JUMPDEST SWAP1 POP SWAP2 SWAP1 POP JUMP JUMPDEST PUSH2 0xBC7 DUP2 PUSH2 0xBAD JUMP JUMPDEST DUP3 MSTORE POP POP JUMP JUMPDEST PUSH0 PUSH1 0x20 DUP3 ADD SWAP1 POP PUSH2 0xBE0 PUSH0 DUP4 ADD DUP5 PUSH2 0xBBE JUMP JUMPDEST SWAP3 SWAP2 POP POP JUMP JUMPDEST PUSH0 PUSH1 0x20 DUP3 ADD SWAP1 POP PUSH2 0xBF9 PUSH0 DUP4 ADD DUP5 PUSH2 0x9AB JUMP JUMPDEST SWAP3 SWAP2 POP POP JUMP JUMPDEST PUSH0 DUP1 PUSH0 DUP1 PUSH1 0x80 DUP6 DUP8 SUB SLT ISZERO PUSH2 0xC17 JUMPI PUSH2 0xC16 PUSH2 0x897 JUMP JUMPDEST JUMPDEST PUSH0 PUSH2 0xC24 DUP8 DUP3 DUP9 ADD PUSH2 0x8BE JUMP JUMPDEST SWAP5 POP POP PUSH1 0x20 DUP6 ADD CALLDATALOAD PUSH8 0xFFFFFFFFFFFFFFFF DUP2 GT ISZERO PUSH2 0xC45 JUMPI PUSH2 0xC44 PUSH2 0x89B JUMP JUMPDEST JUMPDEST PUSH2 0xC51 DUP8 DUP3 DUP9 ADD PUSH2 0xAF5 JUMP JUMPDEST SWAP4 POP POP PUSH1 0x40 PUSH2 0xC62 DUP8 DUP3 DUP9 ADD PUSH2 0x8BE JUMP JUMPDEST SWAP3 POP POP PUSH1 0x60 PUSH2 0xC73 DUP8 DUP3 DUP9 ADD PUSH2 0x8BE JUMP JUMPDEST SWAP2 POP POP SWAP3 SWAP6 SWAP2 SWAP5 POP SWAP3 POP JUMP JUMPDEST PUSH32 0x426F6F6B20646F6573206E6F7420657869737400000000000000000000000000 PUSH0 DUP3 ADD MSTORE POP JUMP JUMPDEST PUSH0 PUSH2 0xCB3 PUSH1 0x13 DUP4 PUSH2 0x945 JUMP JUMPDEST SWAP2 POP PUSH2 0xCBE DUP3 PUSH2 0xC7F JUMP JUMPDEST PUSH1 0x20 DUP3 ADD SWAP1 POP SWAP2 SWAP1 POP JUMP JUMPDEST PUSH0 PUSH1 0x20 DUP3 ADD SWAP1 POP DUP2 DUP2 SUB PUSH0 DUP4 ADD MSTORE PUSH2 0xCE0 DUP2 PUSH2 0xCA7 JUMP JUMPDEST SWAP1 POP SWAP2 SWAP1 POP JUMP JUMPDEST PUSH32 0x426F6F6B206973206F7574206F662073746F636B000000000000000000000000 PUSH0 DUP3 ADD MSTORE POP JUMP JUMPDEST PUSH0 PUSH2 0xD1B PUSH1 0x14 DUP4 PUSH2 0x945 JUMP JUMPDEST SWAP2 POP PUSH2 0xD26 DUP3 PUSH2 0xCE7 JUMP JUMPDEST PUSH1 0x20 DUP3 ADD SWAP1 POP SWAP2 SWAP1 POP JUMP JUMPDEST PUSH0 PUSH1 0x20 DUP3 ADD SWAP1 POP DUP2 DUP2 SUB PUSH0 DUP4 ADD MSTORE PUSH2 0xD48 DUP2 PUSH2 0xD0F JUMP JUMPDEST SWAP1 POP SWAP2 SWAP1 POP JUMP JUMPDEST PUSH32 0x496E73756666696369656E74207061796D656E74000000000000000000000000 PUSH0 DUP3 ADD MSTORE POP JUMP JUMPDEST PUSH0 PUSH2 0xD83 PUSH1 0x14 DUP4 PUSH2 0x945 JUMP JUMPDEST SWAP2 POP PUSH2 0xD8E DUP3 PUSH2 0xD4F JUMP JUMPDEST PUSH1 0x20 DUP3 ADD SWAP1 POP SWAP2 SWAP1 POP JUMP JUMPDEST PUSH0 PUSH1 0x20 DUP3 ADD SWAP1 POP DUP2 DUP2 SUB PUSH0 DUP4 ADD MSTORE PUSH2 0xDB0 DUP2 PUSH2 0xD77 JUMP JUMPDEST SWAP1 POP SWAP2 SWAP1 POP JUMP JUMPDEST PUSH32 0x4E487B7100000000000000000000000000000000000000000000000000000000 PUSH0 MSTORE PUSH1 0x11 PUSH1 0x4 MSTORE PUSH1 0x24 PUSH0 REVERT JUMPDEST PUSH0 PUSH2 0xDEE DUP3 PUSH2 0x89F JUMP JUMPDEST SWAP2 POP PUSH2 0xDF9 DUP4 PUSH2 0x89F JUMP JUMPDEST SWAP3 POP DUP3 DUP3 MUL PUSH2 0xE07 DUP2 PUSH2 0x89F JUMP JUMPDEST SWAP2 POP DUP3 DUP3 DIV DUP5 EQ DUP4 ISZERO OR PUSH2 0xE1E JUMPI PUSH2 0xE1D PUSH2 0xDB7 JUMP JUMPDEST JUMPDEST POP SWAP3 SWAP2 POP POP JUMP JUMPDEST PUSH32 0x496E636F7272656374207061796D656E7420616D6F756E742E00000000000000 PUSH0 DUP3 ADD MSTORE POP JUMP JUMPDEST PUSH0 PUSH2 0xE59 PUSH1 0x19 DUP4 PUSH2 0x945 JUMP JUMPDEST SWAP2 POP PUSH2 0xE64 DUP3 PUSH2 0xE25 JUMP JUMPDEST PUSH1 0x20 DUP3 ADD SWAP1 POP SWAP2 SWAP1 POP JUMP JUMPDEST PUSH0 PUSH1 0x20 DUP3 ADD SWAP1 POP DUP2 DUP2 SUB PUSH0 DUP4 ADD MSTORE PUSH2 0xE86 DUP2 PUSH2 0xE4D JUMP JUMPDEST SWAP1 POP SWAP2 SWAP1 POP JUMP JUMPDEST PUSH0 PUSH2 0xE97 DUP3 PUSH2 0x89F JUMP JUMPDEST SWAP2 POP PUSH0 DUP3 SUB PUSH2 0xEA9 JUMPI PUSH2 0xEA8 PUSH2 0xDB7 JUMP JUMPDEST JUMPDEST PUSH1 0x1 DUP3 SUB SWAP1 POP SWAP2 SWAP1 POP JUMP JUMPDEST PUSH0 PUSH1 0x60 DUP3 ADD SWAP1 POP PUSH2 0xEC7 PUSH0 DUP4 ADD DUP7 PUSH2 0x9AB JUMP JUMPDEST PUSH2 0xED4 PUSH1 0x20 DUP4 ADD DUP6 PUSH2 0xBBE JUMP JUMPDEST PUSH2 0xEE1 PUSH1 0x40 DUP4 ADD DUP5 PUSH2 0x9AB JUMP JUMPDEST SWAP5 SWAP4 POP POP POP POP JUMP JUMPDEST PUSH32 0x4E487B7100000000000000000000000000000000000000000000000000000000 PUSH0 MSTORE PUSH1 0x22 PUSH1 0x4 MSTORE PUSH1 0x24 PUSH0 REVERT JUMPDEST PUSH0 PUSH1 0x2 DUP3 DIV SWAP1 POP PUSH1 0x1 DUP3 AND DUP1 PUSH2 0xF2D JUMPI PUSH1 0x7F DUP3 AND SWAP2 POP JUMPDEST PUSH1 0x20 DUP3 LT DUP2 SUB PUSH2 0xF40 JUMPI PUSH2 0xF3F PUSH2 0xEE9 JUMP JUMPDEST JUMPDEST POP SWAP2 SWAP1 POP JUMP JUMPDEST PUSH32 0x4F6E6C7920746865206F776E65722063616E20706572666F726D207468697320 PUSH0 DUP3 ADD MSTORE PUSH32 0x616374696F6E0000000000000000000000000000000000000000000000000000 PUSH1 0x20 DUP3 ADD MSTORE POP JUMP JUMPDEST PUSH0 PUSH2 0xFA0 PUSH1 0x26 DUP4 PUSH2 0x945 JUMP JUMPDEST SWAP2 POP PUSH2 0xFAB DUP3 PUSH2 0xF46 JUMP JUMPDEST PUSH1 0x40 DUP3 ADD SWAP1 POP SWAP2 SWAP1 POP JUMP JUMPDEST PUSH0 PUSH1 0x20 DUP3 ADD SWAP1 POP DUP2 DUP2 SUB PUSH0 DUP4 ADD MSTORE PUSH2 0xFCD DUP2 PUSH2 0xF94 JUMP JUMPDEST SWAP1 POP SWAP2 SWAP1 POP JUMP JUMPDEST PUSH32 0x5072696365206D7573742062652067726561746572207468616E207A65726F00 PUSH0 DUP3 ADD MSTORE POP JUMP JUMPDEST PUSH0 PUSH2 0x1008 PUSH1 0x1F DUP4 PUSH2 0x945 JUMP JUMPDEST SWAP2 POP PUSH2 0x1013 DUP3 PUSH2 0xFD4 JUMP JUMPDEST PUSH1 0x20 DUP3 ADD SWAP1 POP SWAP2 SWAP1 POP JUMP JUMPDEST PUSH0 PUSH1 0x20 DUP3 ADD SWAP1 POP DUP2 DUP2 SUB PUSH0 DUP4 ADD MSTORE PUSH2 0x1035 DUP2 PUSH2 0xFFC JUMP JUMPDEST SWAP1 POP SWAP2 SWAP1 POP JUMP JUMPDEST PUSH32 0x53746F636B206D7573742062652067726561746572207468616E207A65726F00 PUSH0 DUP3 ADD MSTORE POP JUMP JUMPDEST PUSH0 PUSH2 0x1070 PUSH1 0x1F DUP4 PUSH2 0x945 JUMP JUMPDEST SWAP2 POP PUSH2 0x107B DUP3 PUSH2 0x103C JUMP JUMPDEST PUSH1 0x20 DUP3 ADD SWAP1 POP SWAP2 SWAP1 POP JUMP JUMPDEST PUSH0 PUSH1 0x20 DUP3 ADD SWAP1 POP DUP2 DUP2 SUB PUSH0 DUP4 ADD MSTORE PUSH2 0x109D DUP2 PUSH2 0x1064 JUMP JUMPDEST SWAP1 POP SWAP2 SWAP1 POP JUMP JUMPDEST PUSH0 DUP2 SWAP1 POP DUP2 PUSH0 MSTORE PUSH1 0x20 PUSH0 KECCAK256 SWAP1 POP SWAP2 SWAP1 POP JUMP JUMPDEST PUSH0 PUSH1 0x20 PUSH1 0x1F DUP4 ADD DIV SWAP1 POP SWAP2 SWAP1 POP JUMP JUMPDEST PUSH0 DUP3 DUP3 SHL SWAP1 POP SWAP3 SWAP2 POP POP JUMP JUMPDEST PUSH0 PUSH1 0x8 DUP4 MUL PUSH2 0x1100 PUSH32 0xFFFFFFFFFFFFFFFFFFFFFFFFFFFFFFFFFFFFFFFFFFFFFFFFFFFFFFFFFFFFFFFF DUP3 PUSH2 0x10C5 JUMP JUMPDEST PUSH2 0x110A DUP7 DUP4 PUSH2 0x10C5 JUMP JUMPDEST SWAP6 POP DUP1 NOT DUP5 AND SWAP4 POP DUP1 DUP7 AND DUP5 OR SWAP3 POP POP POP SWAP4 SWAP3 POP POP POP JUMP JUMPDEST PUSH0 DUP2 SWAP1 POP SWAP2 SWAP1 POP JUMP JUMPDEST PUSH0 PUSH2 0x1145 PUSH2 0x1140 PUSH2 0x113B DUP5 PUSH2 0x89F JUMP JUMPDEST PUSH2 0x1122 JUMP JUMPDEST PUSH2 0x89F JUMP JUMPDEST SWAP1 POP SWAP2 SWAP1 POP JUMP JUMPDEST PUSH0 DUP2 SWAP1 POP SWAP2 SWAP1 POP JUMP JUMPDEST PUSH2 0x115E DUP4 PUSH2 0x112B JUMP JUMPDEST PUSH2 0x1172 PUSH2 0x116A DUP3 PUSH2 0x114C JUMP JUMPDEST DUP5 DUP5 SLOAD PUSH2 0x10D1 JUMP JUMPDEST DUP3 SSTORE POP POP POP POP JUMP JUMPDEST PUSH0 SWAP1 JUMP JUMPDEST PUSH2 0x1186 PUSH2 0x117A JUMP JUMPDEST PUSH2 0x1191 DUP2 DUP5 DUP5 PUSH2 0x1155 JUMP JUMPDEST POP POP POP JUMP JUMPDEST JUMPDEST DUP2 DUP2 LT ISZERO PUSH2 0x11B4 JUMPI PUSH2 0x11A9 PUSH0 DUP3 PUSH2 0x117E JUMP JUMPDEST PUSH1 0x1 DUP2 ADD SWAP1 POP PUSH2 0x1197 JUMP JUMPDEST POP POP JUMP JUMPDEST PUSH1 0x1F DUP3 GT ISZERO PUSH2 0x11F9 JUMPI PUSH2 0x11CA DUP2 PUSH2 0x10A4 JUMP JUMPDEST PUSH2 0x11D3 DUP5 PUSH2 0x10B6 JUMP JUMPDEST DUP2 ADD PUSH1 0x20 DUP6 LT ISZERO PUSH2 0x11E2 JUMPI DUP2 SWAP1 POP JUMPDEST PUSH2 0x11F6 PUSH2 0x11EE DUP6 PUSH2 0x10B6 JUMP JUMPDEST DUP4 ADD DUP3 PUSH2 0x1196 JUMP JUMPDEST POP POP JUMPDEST POP POP POP JUMP JUMPDEST PUSH0 DUP3 DUP3 SHR SWAP1 POP SWAP3 SWAP2 POP POP JUMP JUMPDEST PUSH0 PUSH2 0x1219 PUSH0 NOT DUP5 PUSH1 0x8 MUL PUSH2 0x11FE JUMP JUMPDEST NOT DUP1 DUP4 AND SWAP2 POP POP SWAP3 SWAP2 POP POP JUMP JUMPDEST PUSH0 PUSH2 0x1231 DUP4 DUP4 PUSH2 0x120A JUMP JUMPDEST SWAP2 POP DUP3 PUSH1 0x2 MUL DUP3 OR SWAP1 POP SWAP3 SWAP2 POP POP JUMP JUMPDEST PUSH2 0x124A DUP3 PUSH2 0x93B JUMP JUMPDEST PUSH8 0xFFFFFFFFFFFFFFFF DUP2 GT ISZERO PUSH2 0x1263 JUMPI PUSH2 0x1262 PUSH2 0x9FE JUMP JUMPDEST JUMPDEST PUSH2 0x126D DUP3 SLOAD PUSH2 0xF16 JUMP JUMPDEST PUSH2 0x1278 DUP3 DUP3 DUP6 PUSH2 0x11B8 JUMP JUMPDEST PUSH0 PUSH1 0x20 SWAP1 POP PUSH1 0x1F DUP4 GT PUSH1 0x1 DUP2 EQ PUSH2 0x12A9 JUMPI PUSH0 DUP5 ISZERO PUSH2 0x1297 JUMPI DUP3 DUP8 ADD MLOAD SWAP1 POP JUMPDEST PUSH2 0x12A1 DUP6 DUP3 PUSH2 0x1226 JUMP JUMPDEST DUP7 SSTORE POP PUSH2 0x1308 JUMP JUMPDEST PUSH1 0x1F NOT DUP5 AND PUSH2 0x12B7 DUP7 PUSH2 0x10A4 JUMP JUMPDEST PUSH0 JUMPDEST DUP3 DUP2 LT ISZERO PUSH2 0x12DE JUMPI DUP5 DUP10 ADD MLOAD DUP3 SSTORE PUSH1 0x1 DUP3 ADD SWAP2 POP PUSH1 0x20 DUP6 ADD SWAP5 POP PUSH1 0x20 DUP2 ADD SWAP1 POP PUSH2 0x12B9 JUMP JUMPDEST DUP7 DUP4 LT ISZERO PUSH2 0x12FB JUMPI DUP5 DUP10 ADD MLOAD PUSH2 0x12F7 PUSH1 0x1F DUP10 AND DUP3 PUSH2 0x120A JUMP JUMPDEST DUP4 SSTORE POP JUMPDEST PUSH1 0x1 PUSH1 0x2 DUP9 MUL ADD DUP9 SSTORE POP POP POP JUMPDEST POP POP POP POP POP POP JUMP JUMPDEST PUSH0 PUSH1 0x80 DUP3 ADD SWAP1 POP PUSH2 0x1323 PUSH0 DUP4 ADD DUP8 PUSH2 0x9AB JUMP JUMPDEST DUP2 DUP2 SUB PUSH1 0x20 DUP4 ADD MSTORE PUSH2 0x1335 DUP2 DUP7 PUSH2 0x973 JUMP JUMPDEST SWAP1 POP PUSH2 0x1344 PUSH1 0x40 DUP4 ADD DUP6 PUSH2 0x9AB JUMP JUMPDEST PUSH2 0x1351 PUSH1 0x60 DUP4 ADD DUP5 PUSH2 0x9AB JUMP JUMPDEST SWAP6 SWAP5 POP POP POP POP POP JUMP JUMPDEST PUSH0 PUSH2 0x1364 DUP3 PUSH2 0x89F JUMP JUMPDEST SWAP2 POP PUSH32 0xFFFFFFFFFFFFFFFFFFFFFFFFFFFFFFFFFFFFFFFFFFFFFFFFFFFFFFFFFFFFFFFF DUP3 SUB PUSH2 0x1396 JUMPI PUSH2 0x1395 PUSH2 0xDB7 JUMP JUMPDEST JUMPDEST PUSH1 0x1 DUP3 ADD SWAP1 POP SWAP2 SWAP1 POP JUMP JUMPDEST PUSH32 0x53746F636B2063616E6E6F74206265206E656761746976650000000000000000 PUSH0 DUP3 ADD MSTORE POP JUMP JUMPDEST PUSH0 PUSH2 0x13D5 PUSH1 0x18 DUP4 PUSH2 0x945 JUMP JUMPDEST SWAP2 POP PUSH2 0x13E0 DUP3 PUSH2 0x13A1 JUMP JUMPDEST PUSH1 0x20 DUP3 ADD SWAP1 POP SWAP2 SWAP1 POP JUMP JUMPDEST PUSH0 PUSH1 0x20 DUP3 ADD SWAP1 POP DUP2 DUP2 SUB PUSH0 DUP4 ADD MSTORE PUSH2 0x1402 DUP2 PUSH2 0x13C9 JUMP JUMPDEST SWAP1 POP SWAP2 SWAP1 POP JUMP INVALID LOG2 PUSH5 0x6970667358 0x22 SLT KECCAK256 PUSH9 0xDE643C388228E259DB 0xEB TIMESTAMP BLOBBASEFEE PUSH20 0x760E86FAD01B73AC3B0315574B42DD4E7DA36473 PUSH16 0x6C634300081A00330000000000000000 "
				},
				"gasEstimates": {
					"creation": {
						"codeDepositCost": "1036600",
						"executionCost": "30342",
						"totalCost": "1066942"
					},
					"external": {
						"addBook(string,uint256,uint256)": "infinite",
						"bookCount()": "2469",
						"books(uint256)": "infinite",
						"checkStock(uint256)": "infinite",
						"owner()": "2505",
						"purchaseBook(uint256,uint256)": "infinite",
						"updateBook(uint256,string,uint256,uint256)": "infinite"
					}
				},
				"methodIdentifiers": {
					"addBook(string,uint256,uint256)": "80d76e82",
					"bookCount()": "b905ad78",
					"books(uint256)": "68744046",
					"checkStock(uint256)": "a307fcf9",
					"owner()": "8da5cb5b",
					"purchaseBook(uint256,uint256)": "0eed433b",
					"updateBook(uint256,string,uint256,uint256)": "f9263fc7"
				}
			},
			"storageLayout": {
				"storage": [
					{
						"astId": 10,
						"contract": "BookStore_Smart_Contract/BookStore.sol:Bookstore",
						"label": "owner",
						"offset": 0,
						"slot": "0",
						"type": "t_address"
					},
					{
						"astId": 13,
						"contract": "BookStore_Smart_Contract/BookStore.sol:Bookstore",
						"label": "bookCount",
						"offset": 0,
						"slot": "1",
						"type": "t_uint256"
					},
					{
						"astId": 18,
						"contract": "BookStore_Smart_Contract/BookStore.sol:Bookstore",
						"label": "books",
						"offset": 0,
						"slot": "2",
						"type": "t_mapping(t_uint256,t_struct(Book)8_storage)"
					}
				],
				"types": {
					"t_address": {
						"encoding": "inplace",
						"label": "address",
						"numberOfBytes": "20"
					},
					"t_mapping(t_uint256,t_struct(Book)8_storage)": {
						"encoding": "mapping",
						"key": "t_uint256",
						"label": "mapping(uint256 => struct Bookstore.Book)",
						"numberOfBytes": "32",
						"value": "t_struct(Book)8_storage"
					},
					"t_string_storage": {
						"encoding": "bytes",
						"label": "string",
						"numberOfBytes": "32"
					},
					"t_struct(Book)8_storage": {
						"encoding": "inplace",
						"label": "struct Bookstore.Book",
						"members": [
							{
								"astId": 3,
								"contract": "BookStore_Smart_Contract/BookStore.sol:Bookstore",
								"label": "title",
								"offset": 0,
								"slot": "0",
								"type": "t_string_storage"
							},
							{
								"astId": 5,
								"contract": "BookStore_Smart_Contract/BookStore.sol:Bookstore",
								"label": "price",
								"offset": 0,
								"slot": "1",
								"type": "t_uint256"
							},
							{
								"astId": 7,
								"contract": "BookStore_Smart_Contract/BookStore.sol:Bookstore",
								"label": "stock",
								"offset": 0,
								"slot": "2",
								"type": "t_uint256"
							}
						],
						"numberOfBytes": "96"
					},
					"t_uint256": {
						"encoding": "inplace",
						"label": "uint256",
						"numberOfBytes": "32"
					}
				}
			},
			"userdoc": {
				"kind": "user",
				"methods": {},
				"version": 1
			}
		}
	}
}